{
  "_format": "hh-sol-artifact-1",
  "contractName": "NFTCollection",
  "sourceName": "contracts/721.sol",
  "abi": [
    {
      "inputs": [
        {
          "internalType": "string",
          "name": "collectionName",
          "type": "string"
        },
        {
          "internalType": "string",
          "name": "collectionSymbol",
          "type": "string"
        },
        {
          "internalType": "uint256",
          "name": "_mintingFee",
          "type": "uint256"
        },
        {
          "internalType": "uint16",
          "name": "_maxTokens",
          "type": "uint16"
        },
        {
          "internalType": "bool",
          "name": "_limitedCollection",
          "type": "bool"
        },
        {
          "internalType": "bool",
          "name": "_onlyOwnerCanMint",
          "type": "bool"
        }
      ],
      "stateMutability": "nonpayable",
      "type": "constructor"
    },
    {
      "anonymous": false,
      "inputs": [
        {
          "indexed": true,
          "internalType": "address",
          "name": "owner",
          "type": "address"
        },
        {
          "indexed": true,
          "internalType": "address",
          "name": "approved",
          "type": "address"
        },
        {
          "indexed": true,
          "internalType": "uint256",
          "name": "tokenId",
          "type": "uint256"
        }
      ],
      "name": "Approval",
      "type": "event"
    },
    {
      "anonymous": false,
      "inputs": [
        {
          "indexed": true,
          "internalType": "address",
          "name": "owner",
          "type": "address"
        },
        {
          "indexed": true,
          "internalType": "address",
          "name": "operator",
          "type": "address"
        },
        {
          "indexed": false,
          "internalType": "bool",
          "name": "approved",
          "type": "bool"
        }
      ],
      "name": "ApprovalForAll",
      "type": "event"
    },
    {
      "anonymous": false,
      "inputs": [
        {
          "indexed": true,
          "internalType": "address",
          "name": "previousOwner",
          "type": "address"
        },
        {
          "indexed": true,
          "internalType": "address",
          "name": "newOwner",
          "type": "address"
        }
      ],
      "name": "OwnershipTransferred",
      "type": "event"
    },
    {
      "anonymous": false,
      "inputs": [
        {
          "indexed": true,
          "internalType": "address",
          "name": "from",
          "type": "address"
        },
        {
          "indexed": true,
          "internalType": "address",
          "name": "to",
          "type": "address"
        },
        {
          "indexed": true,
          "internalType": "uint256",
          "name": "tokenId",
          "type": "uint256"
        }
      ],
      "name": "Transfer",
      "type": "event"
    },
    {
      "inputs": [
        {
          "internalType": "address",
          "name": "to",
          "type": "address"
        },
        {
          "internalType": "uint256",
          "name": "tokenId",
          "type": "uint256"
        }
      ],
      "name": "approve",
      "outputs": [],
      "stateMutability": "nonpayable",
      "type": "function"
    },
    {
      "inputs": [
        {
          "internalType": "address",
          "name": "owner",
          "type": "address"
        }
      ],
      "name": "balanceOf",
      "outputs": [
        {
          "internalType": "uint256",
          "name": "",
          "type": "uint256"
        }
      ],
      "stateMutability": "view",
      "type": "function"
    },
    {
      "inputs": [
        {
          "internalType": "uint256",
          "name": "tokenId",
          "type": "uint256"
        }
      ],
      "name": "getApproved",
      "outputs": [
        {
          "internalType": "address",
          "name": "",
          "type": "address"
        }
      ],
      "stateMutability": "view",
      "type": "function"
    },
    {
      "inputs": [],
      "name": "getBalance",
      "outputs": [
        {
          "internalType": "uint256",
          "name": "",
          "type": "uint256"
        }
      ],
      "stateMutability": "view",
      "type": "function"
    },
    {
      "inputs": [
        {
          "internalType": "address",
          "name": "owner",
          "type": "address"
        },
        {
          "internalType": "address",
          "name": "operator",
          "type": "address"
        }
      ],
      "name": "isApprovedForAll",
      "outputs": [
        {
          "internalType": "bool",
          "name": "",
          "type": "bool"
        }
      ],
      "stateMutability": "view",
      "type": "function"
    },
    {
      "inputs": [
        {
          "internalType": "uint16",
          "name": "_maxTokens",
          "type": "uint16"
        }
      ],
      "name": "limitCollection",
      "outputs": [],
      "stateMutability": "nonpayable",
      "type": "function"
    },
    {
      "inputs": [],
      "name": "limitedCollection",
      "outputs": [
        {
          "internalType": "bool",
          "name": "",
          "type": "bool"
        }
      ],
      "stateMutability": "view",
      "type": "function"
    },
    {
      "inputs": [],
      "name": "maxTokens",
      "outputs": [
        {
          "internalType": "uint16",
          "name": "",
          "type": "uint16"
        }
      ],
      "stateMutability": "view",
      "type": "function"
    },
    {
      "inputs": [
        {
          "internalType": "string[]",
          "name": "tokenURI",
          "type": "string[]"
        },
        {
          "internalType": "uint16",
          "name": "amount",
          "type": "uint16"
        }
      ],
      "name": "mintManyTokens",
      "outputs": [
        {
          "internalType": "uint256[]",
          "name": "",
          "type": "uint256[]"
        }
      ],
      "stateMutability": "payable",
      "type": "function"
    },
    {
      "inputs": [
        {
          "internalType": "string",
          "name": "tokenURI",
          "type": "string"
        }
      ],
      "name": "mintToken",
      "outputs": [
        {
          "internalType": "uint256",
          "name": "",
          "type": "uint256"
        }
      ],
      "stateMutability": "payable",
      "type": "function"
    },
    {
      "inputs": [],
      "name": "name",
      "outputs": [
        {
          "internalType": "string",
          "name": "",
          "type": "string"
        }
      ],
      "stateMutability": "view",
      "type": "function"
    },
    {
      "inputs": [],
      "name": "owner",
      "outputs": [
        {
          "internalType": "address",
          "name": "",
          "type": "address"
        }
      ],
      "stateMutability": "view",
      "type": "function"
    },
    {
      "inputs": [
        {
          "internalType": "uint256",
          "name": "tokenId",
          "type": "uint256"
        }
      ],
      "name": "ownerOf",
      "outputs": [
        {
          "internalType": "address",
          "name": "",
          "type": "address"
        }
      ],
      "stateMutability": "view",
      "type": "function"
    },
    {
      "inputs": [],
      "name": "renounceOwnership",
      "outputs": [],
      "stateMutability": "nonpayable",
      "type": "function"
    },
    {
      "inputs": [],
      "name": "restrictMinting",
      "outputs": [],
      "stateMutability": "nonpayable",
      "type": "function"
    },
    {
      "inputs": [
        {
          "internalType": "address",
          "name": "from",
          "type": "address"
        },
        {
          "internalType": "address",
          "name": "to",
          "type": "address"
        },
        {
          "internalType": "uint256",
          "name": "tokenId",
          "type": "uint256"
        }
      ],
      "name": "safeTransferFrom",
      "outputs": [],
      "stateMutability": "nonpayable",
      "type": "function"
    },
    {
      "inputs": [
        {
          "internalType": "address",
          "name": "from",
          "type": "address"
        },
        {
          "internalType": "address",
          "name": "to",
          "type": "address"
        },
        {
          "internalType": "uint256",
          "name": "tokenId",
          "type": "uint256"
        },
        {
          "internalType": "bytes",
          "name": "_data",
          "type": "bytes"
        }
      ],
      "name": "safeTransferFrom",
      "outputs": [],
      "stateMutability": "nonpayable",
      "type": "function"
    },
    {
      "inputs": [
        {
          "internalType": "address",
          "name": "operator",
          "type": "address"
        },
        {
          "internalType": "bool",
          "name": "approved",
          "type": "bool"
        }
      ],
      "name": "setApprovalForAll",
      "outputs": [],
      "stateMutability": "nonpayable",
      "type": "function"
    },
    {
      "inputs": [
        {
          "internalType": "uint256",
          "name": "_mintingFee",
          "type": "uint256"
        }
      ],
      "name": "setMintingFee",
      "outputs": [],
      "stateMutability": "nonpayable",
      "type": "function"
    },
    {
      "inputs": [
        {
          "internalType": "bytes4",
          "name": "interfaceId",
          "type": "bytes4"
        }
      ],
      "name": "supportsInterface",
      "outputs": [
        {
          "internalType": "bool",
          "name": "",
          "type": "bool"
        }
      ],
      "stateMutability": "view",
      "type": "function"
    },
    {
      "inputs": [],
      "name": "symbol",
      "outputs": [
        {
          "internalType": "string",
          "name": "",
          "type": "string"
        }
      ],
      "stateMutability": "view",
      "type": "function"
    },
    {
      "inputs": [
        {
          "internalType": "uint256",
          "name": "tokenId",
          "type": "uint256"
        }
      ],
      "name": "tokenURI",
      "outputs": [
        {
          "internalType": "string",
          "name": "",
          "type": "string"
        }
      ],
      "stateMutability": "view",
      "type": "function"
    },
    {
      "inputs": [
        {
          "internalType": "address",
          "name": "from",
          "type": "address"
        },
        {
          "internalType": "address",
          "name": "to",
          "type": "address"
        },
        {
          "internalType": "uint256",
          "name": "tokenId",
          "type": "uint256"
        }
      ],
      "name": "transferFrom",
      "outputs": [],
      "stateMutability": "nonpayable",
      "type": "function"
    },
    {
      "inputs": [
        {
          "internalType": "address",
          "name": "newOwner",
          "type": "address"
        }
      ],
      "name": "transferOwnership",
      "outputs": [],
      "stateMutability": "nonpayable",
      "type": "function"
    },
    {
      "inputs": [],
      "name": "unrestrictMinting",
      "outputs": [],
      "stateMutability": "nonpayable",
      "type": "function"
    },
    {
      "inputs": [],
      "name": "withdrawBalance",
      "outputs": [],
      "stateMutability": "nonpayable",
      "type": "function"
    }
  ],
  "bytecode": "0x60806040523480156200001157600080fd5b50604051620046313803806200463183398181016040528101906200003791906200032e565b8585816000908051906020019062000051929190620001c7565b5080600190805190602001906200006a929190620001c7565b5050506200008d62000081620000f960201b60201c565b6200010160201b60201c565b600160088190555083600a8190555082600b60006101000a81548161ffff021916908361ffff16021790555081600b60026101000a81548160ff02191690831515021790555080600b60036101000a81548160ff021916908315150217905550505050505050620005d8565b600033905090565b6000600760009054906101000a900473ffffffffffffffffffffffffffffffffffffffff16905081600760006101000a81548173ffffffffffffffffffffffffffffffffffffffff021916908373ffffffffffffffffffffffffffffffffffffffff1602179055508173ffffffffffffffffffffffffffffffffffffffff168173ffffffffffffffffffffffffffffffffffffffff167f8be0079c531659141344cd1fd0a4f28419497f9722a3daafe3b4186f6b6457e060405160405180910390a35050565b828054620001d590620004af565b90600052602060002090601f016020900481019282620001f9576000855562000245565b82601f106200021457805160ff191683800117855562000245565b8280016001018555821562000245579182015b828111156200024457825182559160200191906001019062000227565b5b50905062000254919062000258565b5090565b5b808211156200027357600081600090555060010162000259565b5090565b60006200028e62000288846200041f565b620003f6565b905082815260208101848484011115620002a757600080fd5b620002b484828562000479565b509392505050565b600081519050620002cd816200058a565b92915050565b600082601f830112620002e557600080fd5b8151620002f784826020860162000277565b91505092915050565b6000815190506200031181620005a4565b92915050565b6000815190506200032881620005be565b92915050565b60008060008060008060c087890312156200034857600080fd5b600087015167ffffffffffffffff8111156200036357600080fd5b6200037189828a01620002d3565b965050602087015167ffffffffffffffff8111156200038f57600080fd5b6200039d89828a01620002d3565b9550506040620003b089828a0162000317565b9450506060620003c389828a0162000300565b9350506080620003d689828a01620002bc565b92505060a0620003e989828a01620002bc565b9150509295509295509295565b60006200040262000415565b9050620004108282620004e5565b919050565b6000604051905090565b600067ffffffffffffffff8211156200043d576200043c6200054a565b5b620004488262000579565b9050602081019050919050565b60008115159050919050565b600061ffff82169050919050565b6000819050919050565b60005b83811015620004995780820151818401526020810190506200047c565b83811115620004a9576000848401525b50505050565b60006002820490506001821680620004c857607f821691505b60208210811415620004df57620004de6200051b565b5b50919050565b620004f08262000579565b810181811067ffffffffffffffff821117156200051257620005116200054a565b5b80604052505050565b7f4e487b7100000000000000000000000000000000000000000000000000000000600052602260045260246000fd5b7f4e487b7100000000000000000000000000000000000000000000000000000000600052604160045260246000fd5b6000601f19601f8301169050919050565b620005958162000455565b8114620005a157600080fd5b50565b620005af8162000461565b8114620005bb57600080fd5b50565b620005c9816200046f565b8114620005d557600080fd5b50565b61404980620005e86000396000f3fe6080604052600436106101815760003560e01c806370a08231116100d1578063a22cb4651161008a578063cfa35a3e11610064578063cfa35a3e1461053e578063e831574214610569578063e985e9c514610594578063f2fde38b146105d157610181565b8063a22cb465146104af578063b88d4fde146104d8578063c87b56dd1461050157610181565b806370a08231146103be578063715018a6146103fb57806372f58f7f146104125780638da5cb5b146104425780639129308d1461046d57806395d89b411461048457610181565b806323b872dd1161013e57806342842e0e1161011857806342842e0e146103185780635c624f90146103415780635fd8c7101461036a5780636352211e1461038157610181565b806323b872dd146102a8578063303402dd146102d157806333eba49a146102e857610181565b806301ffc9a71461018657806306fdde03146101c3578063081812fc146101ee578063095ea7b31461022b57806312065fe014610254578063238a47091461027f575b600080fd5b34801561019257600080fd5b506101ad60048036038101906101a89190612b6c565b6105fa565b6040516101ba9190613187565b60405180910390f35b3480156101cf57600080fd5b506101d86106dc565b6040516101e591906131a2565b60405180910390f35b3480156101fa57600080fd5b5061021560048036038101906102109190612c28565b61076e565b60405161022291906130fe565b60405180910390f35b34801561023757600080fd5b50610252600480360381019061024d9190612adc565b6107f3565b005b34801561026057600080fd5b5061026961090b565b60405161027691906134bf565b60405180910390f35b34801561028b57600080fd5b506102a660048036038101906102a19190612c28565b610913565b005b3480156102b457600080fd5b506102cf60048036038101906102ca91906129d6565b610999565b005b3480156102dd57600080fd5b506102e66109f9565b005b61030260048036038101906102fd9190612bbe565b610ab2565b60405161030f91906134bf565b60405180910390f35b34801561032457600080fd5b5061033f600480360381019061033a91906129d6565b610c61565b005b34801561034d57600080fd5b5061036860048036038101906103639190612bff565b610c81565b005b34801561037657600080fd5b5061037f610dde565b005b34801561038d57600080fd5b506103a860048036038101906103a39190612c28565b610eaa565b6040516103b591906130fe565b60405180910390f35b3480156103ca57600080fd5b506103e560048036038101906103e09190612971565b610f5c565b6040516103f291906134bf565b60405180910390f35b34801561040757600080fd5b50610410611014565b005b61042c60048036038101906104279190612b18565b61109c565b6040516104399190613165565b60405180910390f35b34801561044e57600080fd5b506104576113d2565b60405161046491906130fe565b60405180910390f35b34801561047957600080fd5b506104826113fc565b005b34801561049057600080fd5b506104996114b5565b6040516104a691906131a2565b60405180910390f35b3480156104bb57600080fd5b506104d660048036038101906104d19190612aa0565b611547565b005b3480156104e457600080fd5b506104ff60048036038101906104fa9190612a25565b61155d565b005b34801561050d57600080fd5b5061052860048036038101906105239190612c28565b6115bf565b60405161053591906131a2565b60405180910390f35b34801561054a57600080fd5b50610553611711565b6040516105609190613187565b60405180910390f35b34801561057557600080fd5b5061057e611724565b60405161058b91906134a4565b60405180910390f35b3480156105a057600080fd5b506105bb60048036038101906105b6919061299a565b611738565b6040516105c89190613187565b60405180910390f35b3480156105dd57600080fd5b506105f860048036038101906105f39190612971565b6117cc565b005b60007f80ac58cd000000000000000000000000000000000000000000000000000000007bffffffffffffffffffffffffffffffffffffffffffffffffffffffff1916827bffffffffffffffffffffffffffffffffffffffffffffffffffffffff191614806106c557507f5b5e139f000000000000000000000000000000000000000000000000000000007bffffffffffffffffffffffffffffffffffffffffffffffffffffffff1916827bffffffffffffffffffffffffffffffffffffffffffffffffffffffff1916145b806106d557506106d4826118c4565b5b9050919050565b6060600080546106eb906137e2565b80601f0160208091040260200160405190810160405280929190818152602001828054610717906137e2565b80156107645780601f1061073957610100808354040283529160200191610764565b820191906000526020600020905b81548152906001019060200180831161074757829003601f168201915b5050505050905090565b60006107798261192e565b6107b8576040517f08c379a00000000000000000000000000000000000000000000000000000000081526004016107af906133a4565b60405180910390fd5b6004600083815260200190815260200160002060009054906101000a900473ffffffffffffffffffffffffffffffffffffffff169050919050565b60006107fe82610eaa565b90508073ffffffffffffffffffffffffffffffffffffffff168373ffffffffffffffffffffffffffffffffffffffff16141561086f576040517f08c379a000000000000000000000000000000000000000000000000000000000815260040161086690613424565b60405180910390fd5b8073ffffffffffffffffffffffffffffffffffffffff1661088e61199a565b73ffffffffffffffffffffffffffffffffffffffff1614806108bd57506108bc816108b761199a565b611738565b5b6108fc576040517f08c379a00000000000000000000000000000000000000000000000000000000081526004016108f3906132c4565b60405180910390fd5b61090683836119a2565b505050565b600047905090565b61091b61199a565b73ffffffffffffffffffffffffffffffffffffffff166109396113d2565b73ffffffffffffffffffffffffffffffffffffffff161461098f576040517f08c379a0000000000000000000000000000000000000000000000000000000008152600401610986906133c4565b60405180910390fd5b80600a8190555050565b6109aa6109a461199a565b82611a5b565b6109e9576040517f08c379a00000000000000000000000000000000000000000000000000000000081526004016109e090613444565b60405180910390fd5b6109f4838383611b39565b505050565b610a0161199a565b73ffffffffffffffffffffffffffffffffffffffff16610a1f6113d2565b73ffffffffffffffffffffffffffffffffffffffff1614610a75576040517f08c379a0000000000000000000000000000000000000000000000000000000008152600401610a6c906133c4565b60405180910390fd5b60011515600b60039054906101000a900460ff16151514610a9557600080fd5b6000600b60036101000a81548160ff021916908315150217905550565b600060026008541415610afa576040517f08c379a0000000000000000000000000000000000000000000000000000000008152600401610af190613484565b60405180910390fd5b6002600881905550600b60039054906101000a900460ff1615610b9457610b1f61199a565b73ffffffffffffffffffffffffffffffffffffffff16610b3d6113d2565b73ffffffffffffffffffffffffffffffffffffffff1614610b93576040517f08c379a0000000000000000000000000000000000000000000000000000000008152600401610b8a906133c4565b60405180910390fd5b5b600b60029054906101000a900460ff1615610c15576001610bb56009611da0565b610bbf9190613609565b600b60009054906101000a900461ffff1661ffff1611610c14576040517f08c379a0000000000000000000000000000000000000000000000000000000008152600401610c0b906133e4565b60405180910390fd5b5b600a54341015610c2457600080fd5b610c2e6009611dae565b6000610c3a6009611da0565b9050610c463382611dc4565b610c508184611f9e565b809150506001600881905550919050565b610c7c8383836040518060200160405280600081525061155d565b505050565b610c8961199a565b73ffffffffffffffffffffffffffffffffffffffff16610ca76113d2565b73ffffffffffffffffffffffffffffffffffffffff1614610cfd576040517f08c379a0000000000000000000000000000000000000000000000000000000008152600401610cf4906133c4565b60405180910390fd5b60001515600b60029054906101000a900460ff16151514610d53576040517f08c379a0000000000000000000000000000000000000000000000000000000008152600401610d4a906131c4565b60405180910390fd5b610d5d6009611da0565b8161ffff161015610da3576040517f08c379a0000000000000000000000000000000000000000000000000000000008152600401610d9a90613464565b60405180910390fd5b6001600b60026101000a81548160ff02191690831515021790555080600b60006101000a81548161ffff021916908361ffff16021790555050565b610de661199a565b73ffffffffffffffffffffffffffffffffffffffff16610e046113d2565b73ffffffffffffffffffffffffffffffffffffffff1614610e5a576040517f08c379a0000000000000000000000000000000000000000000000000000000008152600401610e51906133c4565b60405180910390fd5b610e626113d2565b73ffffffffffffffffffffffffffffffffffffffff166108fc479081150290604051600060405180830381858888f19350505050158015610ea7573d6000803e3d6000fd5b50565b6000806002600084815260200190815260200160002060009054906101000a900473ffffffffffffffffffffffffffffffffffffffff169050600073ffffffffffffffffffffffffffffffffffffffff168173ffffffffffffffffffffffffffffffffffffffff161415610f53576040517f08c379a0000000000000000000000000000000000000000000000000000000008152600401610f4a90613304565b60405180910390fd5b80915050919050565b60008073ffffffffffffffffffffffffffffffffffffffff168273ffffffffffffffffffffffffffffffffffffffff161415610fcd576040517f08c379a0000000000000000000000000000000000000000000000000000000008152600401610fc4906132e4565b60405180910390fd5b600360008373ffffffffffffffffffffffffffffffffffffffff1673ffffffffffffffffffffffffffffffffffffffff168152602001908152602001600020549050919050565b61101c61199a565b73ffffffffffffffffffffffffffffffffffffffff1661103a6113d2565b73ffffffffffffffffffffffffffffffffffffffff1614611090576040517f08c379a0000000000000000000000000000000000000000000000000000000008152600401611087906133c4565b60405180910390fd5b61109a6000612012565b565b6060600260085414156110e4576040517f08c379a00000000000000000000000000000000000000000000000000000000081526004016110db90613484565b60405180910390fd5b600260088190555060008261ffff1611611133576040517f08c379a000000000000000000000000000000000000000000000000000000000815260040161112a90613344565b60405180910390fd5b600b60039054906101000a900460ff16156111c55761115061199a565b73ffffffffffffffffffffffffffffffffffffffff1661116e6113d2565b73ffffffffffffffffffffffffffffffffffffffff16146111c4576040517f08c379a00000000000000000000000000000000000000000000000000000000081526004016111bb906133c4565b60405180910390fd5b5b600b60029054906101000a900460ff1615611249576111e46009611da0565b8261ffff166111f39190613609565b600b60009054906101000a900461ffff1661ffff1611611248576040517f08c379a000000000000000000000000000000000000000000000000000000000815260040161123f906133e4565b60405180910390fd5b5b8161ffff16600a5461125b9190613690565b34101561126757600080fd5b60008261ffff1667ffffffffffffffff8111156112ad577f4e487b7100000000000000000000000000000000000000000000000000000000600052604160045260246000fd5b6040519080825280602002602001820160405280156112db5781602001602082028036833780820191505090505b50905060005b8361ffff168161ffff1610156113bf576112fb6009611dae565b60006113076009611da0565b90506113133382611dc4565b61136181878461ffff1681518110611354577f4e487b7100000000000000000000000000000000000000000000000000000000600052603260045260246000fd5b6020026020010151611f9e565b80838361ffff168151811061139f577f4e487b7100000000000000000000000000000000000000000000000000000000600052603260045260246000fd5b6020026020010181815250505080806113b790613845565b9150506112e1565b5080915050600160088190555092915050565b6000600760009054906101000a900473ffffffffffffffffffffffffffffffffffffffff16905090565b61140461199a565b73ffffffffffffffffffffffffffffffffffffffff166114226113d2565b73ffffffffffffffffffffffffffffffffffffffff1614611478576040517f08c379a000000000000000000000000000000000000000000000000000000000815260040161146f906133c4565b60405180910390fd5b60001515600b60039054906101000a900460ff1615151461149857600080fd5b6001600b60036101000a81548160ff021916908315150217905550565b6060600180546114c4906137e2565b80601f01602080910402602001604051908101604052809291908181526020018280546114f0906137e2565b801561153d5780601f106115125761010080835404028352916020019161153d565b820191906000526020600020905b81548152906001019060200180831161152057829003601f168201915b5050505050905090565b61155961155261199a565b83836120d8565b5050565b61156e61156861199a565b83611a5b565b6115ad576040517f08c379a00000000000000000000000000000000000000000000000000000000081526004016115a490613444565b60405180910390fd5b6115b984848484612245565b50505050565b60606115ca8261192e565b611609576040517f08c379a000000000000000000000000000000000000000000000000000000000815260040161160090613384565b60405180910390fd5b6000600660008481526020019081526020016000208054611629906137e2565b80601f0160208091040260200160405190810160405280929190818152602001828054611655906137e2565b80156116a25780601f10611677576101008083540402835291602001916116a2565b820191906000526020600020905b81548152906001019060200180831161168557829003601f168201915b5050505050905060006116b36122a1565b90506000815114156116c957819250505061170c565b6000825111156116fe5780826040516020016116e69291906130da565b6040516020818303038152906040529250505061170c565b611707846122b8565b925050505b919050565b600b60029054906101000a900460ff1681565b600b60009054906101000a900461ffff1681565b6000600560008473ffffffffffffffffffffffffffffffffffffffff1673ffffffffffffffffffffffffffffffffffffffff16815260200190815260200160002060008373ffffffffffffffffffffffffffffffffffffffff1673ffffffffffffffffffffffffffffffffffffffff16815260200190815260200160002060009054906101000a900460ff16905092915050565b6117d461199a565b73ffffffffffffffffffffffffffffffffffffffff166117f26113d2565b73ffffffffffffffffffffffffffffffffffffffff1614611848576040517f08c379a000000000000000000000000000000000000000000000000000000000815260040161183f906133c4565b60405180910390fd5b600073ffffffffffffffffffffffffffffffffffffffff168173ffffffffffffffffffffffffffffffffffffffff1614156118b8576040517f08c379a00000000000000000000000000000000000000000000000000000000081526004016118af90613204565b60405180910390fd5b6118c181612012565b50565b60007f01ffc9a7000000000000000000000000000000000000000000000000000000007bffffffffffffffffffffffffffffffffffffffffffffffffffffffff1916827bffffffffffffffffffffffffffffffffffffffffffffffffffffffff1916149050919050565b60008073ffffffffffffffffffffffffffffffffffffffff166002600084815260200190815260200160002060009054906101000a900473ffffffffffffffffffffffffffffffffffffffff1673ffffffffffffffffffffffffffffffffffffffff1614159050919050565b600033905090565b816004600083815260200190815260200160002060006101000a81548173ffffffffffffffffffffffffffffffffffffffff021916908373ffffffffffffffffffffffffffffffffffffffff160217905550808273ffffffffffffffffffffffffffffffffffffffff16611a1583610eaa565b73ffffffffffffffffffffffffffffffffffffffff167f8c5be1e5ebec7d5bd14f71427d1e84f3dd0314c0f7b2291e5b200ac8c7c3b92560405160405180910390a45050565b6000611a668261192e565b611aa5576040517f08c379a0000000000000000000000000000000000000000000000000000000008152600401611a9c906132a4565b60405180910390fd5b6000611ab083610eaa565b90508073ffffffffffffffffffffffffffffffffffffffff168473ffffffffffffffffffffffffffffffffffffffff161480611b1f57508373ffffffffffffffffffffffffffffffffffffffff16611b078461076e565b73ffffffffffffffffffffffffffffffffffffffff16145b80611b305750611b2f8185611738565b5b91505092915050565b8273ffffffffffffffffffffffffffffffffffffffff16611b5982610eaa565b73ffffffffffffffffffffffffffffffffffffffff1614611baf576040517f08c379a0000000000000000000000000000000000000000000000000000000008152600401611ba690613224565b60405180910390fd5b600073ffffffffffffffffffffffffffffffffffffffff168273ffffffffffffffffffffffffffffffffffffffff161415611c1f576040517f08c379a0000000000000000000000000000000000000000000000000000000008152600401611c1690613264565b60405180910390fd5b611c2a83838361235f565b611c356000826119a2565b6001600360008573ffffffffffffffffffffffffffffffffffffffff1673ffffffffffffffffffffffffffffffffffffffff1681526020019081526020016000206000828254611c8591906136ea565b925050819055506001600360008473ffffffffffffffffffffffffffffffffffffffff1673ffffffffffffffffffffffffffffffffffffffff1681526020019081526020016000206000828254611cdc9190613609565b92505081905550816002600083815260200190815260200160002060006101000a81548173ffffffffffffffffffffffffffffffffffffffff021916908373ffffffffffffffffffffffffffffffffffffffff160217905550808273ffffffffffffffffffffffffffffffffffffffff168473ffffffffffffffffffffffffffffffffffffffff167fddf252ad1be2c89b69c2b068fc378daa952ba7f163c4a11628f55a4df523b3ef60405160405180910390a4611d9b838383612364565b505050565b600081600001549050919050565b6001816000016000828254019250508190555050565b600073ffffffffffffffffffffffffffffffffffffffff168273ffffffffffffffffffffffffffffffffffffffff161415611e34576040517f08c379a0000000000000000000000000000000000000000000000000000000008152600401611e2b90613364565b60405180910390fd5b611e3d8161192e565b15611e7d576040517f08c379a0000000000000000000000000000000000000000000000000000000008152600401611e7490613244565b60405180910390fd5b611e896000838361235f565b6001600360008473ffffffffffffffffffffffffffffffffffffffff1673ffffffffffffffffffffffffffffffffffffffff1681526020019081526020016000206000828254611ed99190613609565b92505081905550816002600083815260200190815260200160002060006101000a81548173ffffffffffffffffffffffffffffffffffffffff021916908373ffffffffffffffffffffffffffffffffffffffff160217905550808273ffffffffffffffffffffffffffffffffffffffff16600073ffffffffffffffffffffffffffffffffffffffff167fddf252ad1be2c89b69c2b068fc378daa952ba7f163c4a11628f55a4df523b3ef60405160405180910390a4611f9a60008383612364565b5050565b611fa78261192e565b611fe6576040517f08c379a0000000000000000000000000000000000000000000000000000000008152600401611fdd90613324565b60405180910390fd5b8060066000848152602001908152602001600020908051906020019061200d9291906126d0565b505050565b6000600760009054906101000a900473ffffffffffffffffffffffffffffffffffffffff16905081600760006101000a81548173ffffffffffffffffffffffffffffffffffffffff021916908373ffffffffffffffffffffffffffffffffffffffff1602179055508173ffffffffffffffffffffffffffffffffffffffff168173ffffffffffffffffffffffffffffffffffffffff167f8be0079c531659141344cd1fd0a4f28419497f9722a3daafe3b4186f6b6457e060405160405180910390a35050565b8173ffffffffffffffffffffffffffffffffffffffff168373ffffffffffffffffffffffffffffffffffffffff161415612147576040517f08c379a000000000000000000000000000000000000000000000000000000000815260040161213e90613284565b60405180910390fd5b80600560008573ffffffffffffffffffffffffffffffffffffffff1673ffffffffffffffffffffffffffffffffffffffff16815260200190815260200160002060008473ffffffffffffffffffffffffffffffffffffffff1673ffffffffffffffffffffffffffffffffffffffff16815260200190815260200160002060006101000a81548160ff0219169083151502179055508173ffffffffffffffffffffffffffffffffffffffff168373ffffffffffffffffffffffffffffffffffffffff167f17307eab39ab6107e8899845ad3d59bd9653f200f220920489ca2b5937696c31836040516122389190613187565b60405180910390a3505050565b612250848484611b39565b61225c84848484612369565b61229b576040517f08c379a0000000000000000000000000000000000000000000000000000000008152600401612292906131e4565b60405180910390fd5b50505050565b606060405180602001604052806000815250905090565b60606122c38261192e565b612302576040517f08c379a00000000000000000000000000000000000000000000000000000000081526004016122f990613404565b60405180910390fd5b600061230c6122a1565b9050600081511161232c5760405180602001604052806000815250612357565b8061233684612500565b6040516020016123479291906130da565b6040516020818303038152906040525b915050919050565b505050565b505050565b600061238a8473ffffffffffffffffffffffffffffffffffffffff166126ad565b156124f3578373ffffffffffffffffffffffffffffffffffffffff1663150b7a026123b361199a565b8786866040518563ffffffff1660e01b81526004016123d59493929190613119565b602060405180830381600087803b1580156123ef57600080fd5b505af192505050801561242057506040513d601f19601f8201168201806040525081019061241d9190612b95565b60015b6124a3573d8060008114612450576040519150601f19603f3d011682016040523d82523d6000602084013e612455565b606091505b5060008151141561249b576040517f08c379a0000000000000000000000000000000000000000000000000000000008152600401612492906131e4565b60405180910390fd5b805181602001fd5b63150b7a0260e01b7bffffffffffffffffffffffffffffffffffffffffffffffffffffffff1916817bffffffffffffffffffffffffffffffffffffffffffffffffffffffff1916149150506124f8565b600190505b949350505050565b60606000821415612548576040518060400160405280600181526020017f300000000000000000000000000000000000000000000000000000000000000081525090506126a8565b600082905060005b6000821461257a57808061256390613870565b915050600a82612573919061365f565b9150612550565b60008167ffffffffffffffff8111156125bc577f4e487b7100000000000000000000000000000000000000000000000000000000600052604160045260246000fd5b6040519080825280601f01601f1916602001820160405280156125ee5781602001600182028036833780820191505090505b5090505b600085146126a15760018261260791906136ea565b9150600a8561261691906138b9565b60306126229190613609565b60f81b81838151811061265e577f4e487b7100000000000000000000000000000000000000000000000000000000600052603260045260246000fd5b60200101907effffffffffffffffffffffffffffffffffffffffffffffffffffffffffffff1916908160001a905350600a8561269a919061365f565b94506125f2565b8093505050505b919050565b6000808273ffffffffffffffffffffffffffffffffffffffff163b119050919050565b8280546126dc906137e2565b90600052602060002090601f0160209004810192826126fe5760008555612745565b82601f1061271757805160ff1916838001178555612745565b82800160010185558215612745579182015b82811115612744578251825591602001919060010190612729565b5b5090506127529190612756565b5090565b5b8082111561276f576000816000905550600101612757565b5090565b6000612786612781846134ff565b6134da565b905080838252602082019050828560208602820111156127a557600080fd5b60005b858110156127ef57813567ffffffffffffffff8111156127c757600080fd5b8086016127d4898261291d565b855260208501945060208401935050506001810190506127a8565b5050509392505050565b600061280c6128078461352b565b6134da565b90508281526020810184848401111561282457600080fd5b61282f8482856137a0565b509392505050565b600061284a6128458461355c565b6134da565b90508281526020810184848401111561286257600080fd5b61286d8482856137a0565b509392505050565b60008135905061288481613fa0565b92915050565b600082601f83011261289b57600080fd5b81356128ab848260208601612773565b91505092915050565b6000813590506128c381613fb7565b92915050565b6000813590506128d881613fce565b92915050565b6000815190506128ed81613fce565b92915050565b600082601f83011261290457600080fd5b81356129148482602086016127f9565b91505092915050565b600082601f83011261292e57600080fd5b813561293e848260208601612837565b91505092915050565b60008135905061295681613fe5565b92915050565b60008135905061296b81613ffc565b92915050565b60006020828403121561298357600080fd5b600061299184828501612875565b91505092915050565b600080604083850312156129ad57600080fd5b60006129bb85828601612875565b92505060206129cc85828601612875565b9150509250929050565b6000806000606084860312156129eb57600080fd5b60006129f986828701612875565b9350506020612a0a86828701612875565b9250506040612a1b8682870161295c565b9150509250925092565b60008060008060808587031215612a3b57600080fd5b6000612a4987828801612875565b9450506020612a5a87828801612875565b9350506040612a6b8782880161295c565b925050606085013567ffffffffffffffff811115612a8857600080fd5b612a94878288016128f3565b91505092959194509250565b60008060408385031215612ab357600080fd5b6000612ac185828601612875565b9250506020612ad2858286016128b4565b9150509250929050565b60008060408385031215612aef57600080fd5b6000612afd85828601612875565b9250506020612b0e8582860161295c565b9150509250929050565b60008060408385031215612b2b57600080fd5b600083013567ffffffffffffffff811115612b4557600080fd5b612b518582860161288a565b9250506020612b6285828601612947565b9150509250929050565b600060208284031215612b7e57600080fd5b6000612b8c848285016128c9565b91505092915050565b600060208284031215612ba757600080fd5b6000612bb5848285016128de565b91505092915050565b600060208284031215612bd057600080fd5b600082013567ffffffffffffffff811115612bea57600080fd5b612bf68482850161291d565b91505092915050565b600060208284031215612c1157600080fd5b6000612c1f84828501612947565b91505092915050565b600060208284031215612c3a57600080fd5b6000612c488482850161295c565b91505092915050565b6000612c5d83836130bc565b60208301905092915050565b612c728161371e565b82525050565b6000612c838261359d565b612c8d81856135cb565b9350612c988361358d565b8060005b83811015612cc9578151612cb08882612c51565b9750612cbb836135be565b925050600181019050612c9c565b5085935050505092915050565b612cdf81613730565b82525050565b6000612cf0826135a8565b612cfa81856135dc565b9350612d0a8185602086016137af565b612d13816139a6565b840191505092915050565b6000612d29826135b3565b612d3381856135ed565b9350612d438185602086016137af565b612d4c816139a6565b840191505092915050565b6000612d62826135b3565b612d6c81856135fe565b9350612d7c8185602086016137af565b80840191505092915050565b6000612d95601b836135ed565b9150612da0826139b7565b602082019050919050565b6000612db86032836135ed565b9150612dc3826139e0565b604082019050919050565b6000612ddb6026836135ed565b9150612de682613a2f565b604082019050919050565b6000612dfe6025836135ed565b9150612e0982613a7e565b604082019050919050565b6000612e21601c836135ed565b9150612e2c82613acd565b602082019050919050565b6000612e446024836135ed565b9150612e4f82613af6565b604082019050919050565b6000612e676019836135ed565b9150612e7282613b45565b602082019050919050565b6000612e8a602c836135ed565b9150612e9582613b6e565b604082019050919050565b6000612ead6038836135ed565b9150612eb882613bbd565b604082019050919050565b6000612ed0602a836135ed565b9150612edb82613c0c565b604082019050919050565b6000612ef36029836135ed565b9150612efe82613c5b565b604082019050919050565b6000612f16602e836135ed565b9150612f2182613caa565b604082019050919050565b6000612f39601f836135ed565b9150612f4482613cf9565b602082019050919050565b6000612f5c6020836135ed565b9150612f6782613d22565b602082019050919050565b6000612f7f6031836135ed565b9150612f8a82613d4b565b604082019050919050565b6000612fa2602c836135ed565b9150612fad82613d9a565b604082019050919050565b6000612fc56020836135ed565b9150612fd082613de9565b602082019050919050565b6000612fe8601e836135ed565b9150612ff382613e12565b602082019050919050565b600061300b602f836135ed565b915061301682613e3b565b604082019050919050565b600061302e6021836135ed565b915061303982613e8a565b604082019050919050565b60006130516031836135ed565b915061305c82613ed9565b604082019050919050565b60006130746023836135ed565b915061307f82613f28565b604082019050919050565b6000613097601f836135ed565b91506130a282613f77565b602082019050919050565b6130b681613768565b82525050565b6130c581613796565b82525050565b6130d481613796565b82525050565b60006130e68285612d57565b91506130f28284612d57565b91508190509392505050565b60006020820190506131136000830184612c69565b92915050565b600060808201905061312e6000830187612c69565b61313b6020830186612c69565b61314860408301856130cb565b818103606083015261315a8184612ce5565b905095945050505050565b6000602082019050818103600083015261317f8184612c78565b905092915050565b600060208201905061319c6000830184612cd6565b92915050565b600060208201905081810360008301526131bc8184612d1e565b905092915050565b600060208201905081810360008301526131dd81612d88565b9050919050565b600060208201905081810360008301526131fd81612dab565b9050919050565b6000602082019050818103600083015261321d81612dce565b9050919050565b6000602082019050818103600083015261323d81612df1565b9050919050565b6000602082019050818103600083015261325d81612e14565b9050919050565b6000602082019050818103600083015261327d81612e37565b9050919050565b6000602082019050818103600083015261329d81612e5a565b9050919050565b600060208201905081810360008301526132bd81612e7d565b9050919050565b600060208201905081810360008301526132dd81612ea0565b9050919050565b600060208201905081810360008301526132fd81612ec3565b9050919050565b6000602082019050818103600083015261331d81612ee6565b9050919050565b6000602082019050818103600083015261333d81612f09565b9050919050565b6000602082019050818103600083015261335d81612f2c565b9050919050565b6000602082019050818103600083015261337d81612f4f565b9050919050565b6000602082019050818103600083015261339d81612f72565b9050919050565b600060208201905081810360008301526133bd81612f95565b9050919050565b600060208201905081810360008301526133dd81612fb8565b9050919050565b600060208201905081810360008301526133fd81612fdb565b9050919050565b6000602082019050818103600083015261341d81612ffe565b9050919050565b6000602082019050818103600083015261343d81613021565b9050919050565b6000602082019050818103600083015261345d81613044565b9050919050565b6000602082019050818103600083015261347d81613067565b9050919050565b6000602082019050818103600083015261349d8161308a565b9050919050565b60006020820190506134b960008301846130ad565b92915050565b60006020820190506134d460008301846130cb565b92915050565b60006134e46134f5565b90506134f08282613814565b919050565b6000604051905090565b600067ffffffffffffffff82111561351a57613519613977565b5b602082029050602081019050919050565b600067ffffffffffffffff82111561354657613545613977565b5b61354f826139a6565b9050602081019050919050565b600067ffffffffffffffff82111561357757613576613977565b5b613580826139a6565b9050602081019050919050565b6000819050602082019050919050565b600081519050919050565b600081519050919050565b600081519050919050565b6000602082019050919050565b600082825260208201905092915050565b600082825260208201905092915050565b600082825260208201905092915050565b600081905092915050565b600061361482613796565b915061361f83613796565b9250827fffffffffffffffffffffffffffffffffffffffffffffffffffffffffffffffff03821115613654576136536138ea565b5b828201905092915050565b600061366a82613796565b915061367583613796565b92508261368557613684613919565b5b828204905092915050565b600061369b82613796565b91506136a683613796565b9250817fffffffffffffffffffffffffffffffffffffffffffffffffffffffffffffffff04831182151516156136df576136de6138ea565b5b828202905092915050565b60006136f582613796565b915061370083613796565b925082821015613713576137126138ea565b5b828203905092915050565b600061372982613776565b9050919050565b60008115159050919050565b60007fffffffff0000000000000000000000000000000000000000000000000000000082169050919050565b600061ffff82169050919050565b600073ffffffffffffffffffffffffffffffffffffffff82169050919050565b6000819050919050565b82818337600083830152505050565b60005b838110156137cd5780820151818401526020810190506137b2565b838111156137dc576000848401525b50505050565b600060028204905060018216806137fa57607f821691505b6020821081141561380e5761380d613948565b5b50919050565b61381d826139a6565b810181811067ffffffffffffffff8211171561383c5761383b613977565b5b80604052505050565b600061385082613768565b915061ffff821415613865576138646138ea565b5b600182019050919050565b600061387b82613796565b91507fffffffffffffffffffffffffffffffffffffffffffffffffffffffffffffffff8214156138ae576138ad6138ea565b5b600182019050919050565b60006138c482613796565b91506138cf83613796565b9250826138df576138de613919565b5b828206905092915050565b7f4e487b7100000000000000000000000000000000000000000000000000000000600052601160045260246000fd5b7f4e487b7100000000000000000000000000000000000000000000000000000000600052601260045260246000fd5b7f4e487b7100000000000000000000000000000000000000000000000000000000600052602260045260246000fd5b7f4e487b7100000000000000000000000000000000000000000000000000000000600052604160045260246000fd5b6000601f19601f8301169050919050565b7f436f6c6c656374696f6e20616c7265616479206c696d697465642e0000000000600082015250565b7f4552433732313a207472616e7366657220746f206e6f6e20455243373231526560008201527f63656976657220696d706c656d656e7465720000000000000000000000000000602082015250565b7f4f776e61626c653a206e6577206f776e657220697320746865207a65726f206160008201527f6464726573730000000000000000000000000000000000000000000000000000602082015250565b7f4552433732313a207472616e736665722066726f6d20696e636f72726563742060008201527f6f776e6572000000000000000000000000000000000000000000000000000000602082015250565b7f4552433732313a20746f6b656e20616c7265616479206d696e74656400000000600082015250565b7f4552433732313a207472616e7366657220746f20746865207a65726f2061646460008201527f7265737300000000000000000000000000000000000000000000000000000000602082015250565b7f4552433732313a20617070726f766520746f2063616c6c657200000000000000600082015250565b7f4552433732313a206f70657261746f7220717565727920666f72206e6f6e657860008201527f697374656e7420746f6b656e0000000000000000000000000000000000000000602082015250565b7f4552433732313a20617070726f76652063616c6c6572206973206e6f74206f7760008201527f6e6572206e6f7220617070726f76656420666f7220616c6c0000000000000000602082015250565b7f4552433732313a2062616c616e636520717565727920666f7220746865207a6560008201527f726f206164647265737300000000000000000000000000000000000000000000602082015250565b7f4552433732313a206f776e657220717565727920666f72206e6f6e657869737460008201527f656e7420746f6b656e0000000000000000000000000000000000000000000000602082015250565b7f45524337323155524953746f726167653a2055524920736574206f66206e6f6e60008201527f6578697374656e7420746f6b656e000000000000000000000000000000000000602082015250565b7f416d6f756e742073686f756c642062652067726561746572207468616e203000600082015250565b7f4552433732313a206d696e7420746f20746865207a65726f2061646472657373600082015250565b7f45524337323155524953746f726167653a2055524920717565727920666f722060008201527f6e6f6e6578697374656e7420746f6b656e000000000000000000000000000000602082015250565b7f4552433732313a20617070726f76656420717565727920666f72206e6f6e657860008201527f697374656e7420746f6b656e0000000000000000000000000000000000000000602082015250565b7f4f776e61626c653a2063616c6c6572206973206e6f7420746865206f776e6572600082015250565b7f4e6f7420656e6f75676820746f6b656e73206c65667420746f206275792e0000600082015250565b7f4552433732314d657461646174613a2055524920717565727920666f72206e6f60008201527f6e6578697374656e7420746f6b656e0000000000000000000000000000000000602082015250565b7f4552433732313a20617070726f76616c20746f2063757272656e74206f776e6560008201527f7200000000000000000000000000000000000000000000000000000000000000602082015250565b7f4552433732313a207472616e736665722063616c6c6572206973206e6f74206f60008201527f776e6572206e6f7220617070726f766564000000000000000000000000000000602082015250565b7f416c7265616479206d6f726520746f6b656e73207468616e206d6178206c696d60008201527f69742e0000000000000000000000000000000000000000000000000000000000602082015250565b7f5265656e7472616e637947756172643a207265656e7472616e742063616c6c00600082015250565b613fa98161371e565b8114613fb457600080fd5b50565b613fc081613730565b8114613fcb57600080fd5b50565b613fd78161373c565b8114613fe257600080fd5b50565b613fee81613768565b8114613ff957600080fd5b50565b61400581613796565b811461401057600080fd5b5056fea26469706673582212203d237b3b05e01a2a0e0617bd5f63bb69a6858da51ab066f57e968e2afd73b04d64736f6c63430008040033",
  "linkReferences": {},
  "deployedLinkReferences": {}
}