{
  "_format": "hh-sol-artifact-1",
  "contractName": "UserDepositContract",
  "sourceName": "contracts/UserDeposit.sol",
  "abi": [
    {
      "anonymous": false,
      "inputs": [
        {
          "indexed": false,
          "internalType": "address",
          "name": "collectionContract",
          "type": "address"
        }
      ],
      "name": "CollectionContractCreated",
      "type": "event"
    },
    {
      "anonymous": false,
      "inputs": [
        {
          "indexed": true,
          "internalType": "address",
          "name": "previousOwner",
          "type": "address"
        },
        {
          "indexed": true,
          "internalType": "address",
          "name": "newOwner",
          "type": "address"
        }
      ],
      "name": "OwnershipTransferred",
      "type": "event"
    },
    {
      "anonymous": false,
      "inputs": [
        {
          "indexed": false,
          "internalType": "address",
          "name": "tokenAddress",
          "type": "address"
        },
        {
          "indexed": false,
          "internalType": "address",
          "name": "minterAddress",
          "type": "address"
        },
        {
          "indexed": false,
          "internalType": "uint256[]",
          "name": "amountOfMintedTokens",
          "type": "uint256[]"
        }
      ],
      "name": "tokenMinted",
      "type": "event"
    },
    {
      "anonymous": false,
      "inputs": [
        {
          "indexed": false,
          "internalType": "address",
          "name": "msgSender",
          "type": "address"
        },
        {
          "indexed": false,
          "internalType": "address",
          "name": "tokenAddress",
          "type": "address"
        },
        {
          "indexed": false,
          "internalType": "address",
          "name": "receiverAddress",
          "type": "address"
        },
        {
          "indexed": false,
          "internalType": "uint256",
          "name": "tokenId",
          "type": "uint256"
        }
      ],
      "name": "withdrawCalled",
      "type": "event"
    },
    {
      "inputs": [
        {
          "internalType": "address",
          "name": "",
          "type": "address"
        },
        {
          "internalType": "address",
          "name": "",
          "type": "address"
        },
        {
          "internalType": "uint256[]",
          "name": "",
          "type": "uint256[]"
        },
        {
          "internalType": "uint256[]",
          "name": "",
          "type": "uint256[]"
        },
        {
          "internalType": "bytes",
          "name": "",
          "type": "bytes"
        }
      ],
      "name": "onERC1155BatchReceived",
      "outputs": [
        {
          "internalType": "bytes4",
          "name": "",
          "type": "bytes4"
        }
      ],
      "stateMutability": "nonpayable",
      "type": "function"
    },
    {
      "inputs": [
        {
          "internalType": "address",
          "name": "",
          "type": "address"
        },
        {
          "internalType": "address",
          "name": "",
          "type": "address"
        },
        {
          "internalType": "uint256",
          "name": "",
          "type": "uint256"
        },
        {
          "internalType": "uint256",
          "name": "",
          "type": "uint256"
        },
        {
          "internalType": "bytes",
          "name": "",
          "type": "bytes"
        }
      ],
      "name": "onERC1155Received",
      "outputs": [
        {
          "internalType": "bytes4",
          "name": "",
          "type": "bytes4"
        }
      ],
      "stateMutability": "nonpayable",
      "type": "function"
    },
    {
      "inputs": [
        {
          "internalType": "address",
          "name": "",
          "type": "address"
        },
        {
          "internalType": "address",
          "name": "",
          "type": "address"
        },
        {
          "internalType": "uint256",
          "name": "",
          "type": "uint256"
        },
        {
          "internalType": "bytes",
          "name": "",
          "type": "bytes"
        }
      ],
      "name": "onERC721Received",
      "outputs": [
        {
          "internalType": "bytes4",
          "name": "",
          "type": "bytes4"
        }
      ],
      "stateMutability": "nonpayable",
      "type": "function"
    },
    {
      "inputs": [],
      "name": "owner",
      "outputs": [
        {
          "internalType": "address",
          "name": "",
          "type": "address"
        }
      ],
      "stateMutability": "view",
      "type": "function"
    },
    {
      "inputs": [],
      "name": "renounceOwnership",
      "outputs": [],
      "stateMutability": "nonpayable",
      "type": "function"
    },
    {
      "inputs": [
        {
          "internalType": "address",
          "name": "newOwner",
          "type": "address"
        }
      ],
      "name": "transferOwnership",
      "outputs": [],
      "stateMutability": "nonpayable",
      "type": "function"
    },
    {
      "inputs": [
        {
          "internalType": "address",
          "name": "tokenAddress",
          "type": "address"
        },
        {
          "internalType": "address",
          "name": "receiverAddress",
          "type": "address"
        },
        {
          "internalType": "uint256",
          "name": "tokenId",
          "type": "uint256"
        },
        {
          "internalType": "uint256",
          "name": "amount",
          "type": "uint256"
        }
      ],
      "name": "transferToken",
      "outputs": [],
      "stateMutability": "nonpayable",
      "type": "function"
    },
    {
      "inputs": [
        {
          "internalType": "address",
          "name": "tokenAddress",
          "type": "address"
        },
        {
          "internalType": "address",
          "name": "receiverAddress",
          "type": "address"
        },
        {
          "internalType": "uint256[]",
          "name": "tokenIds",
          "type": "uint256[]"
        },
        {
          "internalType": "uint256[]",
          "name": "amount",
          "type": "uint256[]"
        }
      ],
      "name": "transferToken",
      "outputs": [],
      "stateMutability": "nonpayable",
      "type": "function"
    },
    {
      "inputs": [
        {
          "internalType": "address",
          "name": "tokenAddress",
          "type": "address"
        },
        {
          "internalType": "address",
          "name": "receiverAddress",
          "type": "address"
        },
        {
          "internalType": "uint256",
          "name": "tokenId",
          "type": "uint256"
        }
      ],
      "name": "transferToken",
      "outputs": [],
      "stateMutability": "nonpayable",
      "type": "function"
    }
  ],
  "bytecode": "0x608060405234801561001057600080fd5b5061002d61002261003260201b60201c565b61003a60201b60201c565b6100fe565b600033905090565b60008060009054906101000a900473ffffffffffffffffffffffffffffffffffffffff169050816000806101000a81548173ffffffffffffffffffffffffffffffffffffffff021916908373ffffffffffffffffffffffffffffffffffffffff1602179055508173ffffffffffffffffffffffffffffffffffffffff168173ffffffffffffffffffffffffffffffffffffffff167f8be0079c531659141344cd1fd0a4f28419497f9722a3daafe3b4186f6b6457e060405160405180910390a35050565b6112088061010d6000396000f3fe608060405234801561001057600080fd5b50600436106100935760003560e01c80638da5cb5b116100665780638da5cb5b1461010a578063bc197c8114610128578063f23a6e6114610158578063f2fde38b14610188578063f5537ede146101a457610093565b8063036ebef914610098578063150b7a02146100b4578063715018a6146100e457806380b96dba146100ee575b600080fd5b6100b260048036038101906100ad9190610b52565b6101c0565b005b6100ce60048036038101906100c99190610ad7565b610301565b6040516100db9190610ece565b60405180910390f35b6100ec610315565b005b61010860048036038101906101039190610936565b61039d565b005b6101126104a1565b60405161011f9190610d75565b60405180910390f35b610142600480360381019061013d91906109c9565b6104ca565b60405161014f9190610ece565b60405180910390f35b610172600480360381019061016d9190610bb5565b6104df565b60405161017f9190610ece565b60405180910390f35b6101a2600480360381019061019d919061090d565b6104f4565b005b6101be60048036038101906101b99190610a88565b6105ec565b005b6101c8610719565b73ffffffffffffffffffffffffffffffffffffffff166101e66104a1565b73ffffffffffffffffffffffffffffffffffffffff161461023c576040517f08c379a000000000000000000000000000000000000000000000000000000000815260040161023390610f09565b60405180910390fd5b8373ffffffffffffffffffffffffffffffffffffffff1663f242432a30858585604051806020016040528060008152506040518663ffffffff1660e01b815260040161028c959493929190610e74565b600060405180830381600087803b1580156102a657600080fd5b505af11580156102ba573d6000803e3d6000fd5b505050507f5ba15e0e7608c39e283a15084094ca03a7e153110b8076e630f51a7fddda6f06338585856040516102f39493929190610d90565b60405180910390a150505050565b600063150b7a0260e01b9050949350505050565b61031d610719565b73ffffffffffffffffffffffffffffffffffffffff1661033b6104a1565b73ffffffffffffffffffffffffffffffffffffffff1614610391576040517f08c379a000000000000000000000000000000000000000000000000000000000815260040161038890610f09565b60405180910390fd5b61039b6000610721565b565b6103a5610719565b73ffffffffffffffffffffffffffffffffffffffff166103c36104a1565b73ffffffffffffffffffffffffffffffffffffffff1614610419576040517f08c379a000000000000000000000000000000000000000000000000000000000815260040161041090610f09565b60405180910390fd5b8373ffffffffffffffffffffffffffffffffffffffff16632eb2c2d630858585604051806020016040528060008152506040518663ffffffff1660e01b8152600401610469959493929190610dd5565b600060405180830381600087803b15801561048357600080fd5b505af1158015610497573d6000803e3d6000fd5b5050505050505050565b60008060009054906101000a900473ffffffffffffffffffffffffffffffffffffffff16905090565b600063bc197c8160e01b905095945050505050565b600063f23a6e6160e01b905095945050505050565b6104fc610719565b73ffffffffffffffffffffffffffffffffffffffff1661051a6104a1565b73ffffffffffffffffffffffffffffffffffffffff1614610570576040517f08c379a000000000000000000000000000000000000000000000000000000000815260040161056790610f09565b60405180910390fd5b600073ffffffffffffffffffffffffffffffffffffffff168173ffffffffffffffffffffffffffffffffffffffff1614156105e0576040517f08c379a00000000000000000000000000000000000000000000000000000000081526004016105d790610ee9565b60405180910390fd5b6105e981610721565b50565b6105f4610719565b73ffffffffffffffffffffffffffffffffffffffff166106126104a1565b73ffffffffffffffffffffffffffffffffffffffff1614610668576040517f08c379a000000000000000000000000000000000000000000000000000000000815260040161065f90610f09565b60405180910390fd5b8273ffffffffffffffffffffffffffffffffffffffff166323b872dd3084846040518463ffffffff1660e01b81526004016106a593929190610e3d565b600060405180830381600087803b1580156106bf57600080fd5b505af11580156106d3573d6000803e3d6000fd5b505050507f5ba15e0e7608c39e283a15084094ca03a7e153110b8076e630f51a7fddda6f063384848460405161070c9493929190610d90565b60405180910390a1505050565b600033905090565b60008060009054906101000a900473ffffffffffffffffffffffffffffffffffffffff169050816000806101000a81548173ffffffffffffffffffffffffffffffffffffffff021916908373ffffffffffffffffffffffffffffffffffffffff1602179055508173ffffffffffffffffffffffffffffffffffffffff168173ffffffffffffffffffffffffffffffffffffffff167f8be0079c531659141344cd1fd0a4f28419497f9722a3daafe3b4186f6b6457e060405160405180910390a35050565b60006107f86107f384610f4e565b610f29565b9050808382526020820190508285602086028201111561081757600080fd5b60005b85811015610847578161082d88826108f8565b84526020840193506020830192505060018101905061081a565b5050509392505050565b600061086461085f84610f7a565b610f29565b90508281526020810184848401111561087c57600080fd5b610887848285611079565b509392505050565b60008135905061089e816111a4565b92915050565b600082601f8301126108b557600080fd5b81356108c58482602086016107e5565b91505092915050565b600082601f8301126108df57600080fd5b81356108ef848260208601610851565b91505092915050565b600081359050610907816111bb565b92915050565b60006020828403121561091f57600080fd5b600061092d8482850161088f565b91505092915050565b6000806000806080858703121561094c57600080fd5b600061095a8782880161088f565b945050602061096b8782880161088f565b935050604085013567ffffffffffffffff81111561098857600080fd5b610994878288016108a4565b925050606085013567ffffffffffffffff8111156109b157600080fd5b6109bd878288016108a4565b91505092959194509250565b600080600080600060a086880312156109e157600080fd5b60006109ef8882890161088f565b9550506020610a008882890161088f565b945050604086013567ffffffffffffffff811115610a1d57600080fd5b610a29888289016108a4565b935050606086013567ffffffffffffffff811115610a4657600080fd5b610a52888289016108a4565b925050608086013567ffffffffffffffff811115610a6f57600080fd5b610a7b888289016108ce565b9150509295509295909350565b600080600060608486031215610a9d57600080fd5b6000610aab8682870161088f565b9350506020610abc8682870161088f565b9250506040610acd868287016108f8565b9150509250925092565b60008060008060808587031215610aed57600080fd5b6000610afb8782880161088f565b9450506020610b0c8782880161088f565b9350506040610b1d878288016108f8565b925050606085013567ffffffffffffffff811115610b3a57600080fd5b610b46878288016108ce565b91505092959194509250565b60008060008060808587031215610b6857600080fd5b6000610b768782880161088f565b9450506020610b878782880161088f565b9350506040610b98878288016108f8565b9250506060610ba9878288016108f8565b91505092959194509250565b600080600080600060a08688031215610bcd57600080fd5b6000610bdb8882890161088f565b9550506020610bec8882890161088f565b9450506040610bfd888289016108f8565b9350506060610c0e888289016108f8565b925050608086013567ffffffffffffffff811115610c2b57600080fd5b610c37888289016108ce565b9150509295509295909350565b6000610c508383610d57565b60208301905092915050565b610c6581611011565b82525050565b6000610c7682610fbb565b610c808185610fde565b9350610c8b83610fab565b8060005b83811015610cbc578151610ca38882610c44565b9750610cae83610fd1565b925050600181019050610c8f565b5085935050505092915050565b610cd281611023565b82525050565b6000610ce382610fc6565b610ced8185610fef565b9350610cfd818560208601611088565b610d068161111b565b840191505092915050565b6000610d1e602683611000565b9150610d298261112c565b604082019050919050565b6000610d41602083611000565b9150610d4c8261117b565b602082019050919050565b610d608161106f565b82525050565b610d6f8161106f565b82525050565b6000602082019050610d8a6000830184610c5c565b92915050565b6000608082019050610da56000830187610c5c565b610db26020830186610c5c565b610dbf6040830185610c5c565b610dcc6060830184610d66565b95945050505050565b600060a082019050610dea6000830188610c5c565b610df76020830187610c5c565b8181036040830152610e098186610c6b565b90508181036060830152610e1d8185610c6b565b90508181036080830152610e318184610cd8565b90509695505050505050565b6000606082019050610e526000830186610c5c565b610e5f6020830185610c5c565b610e6c6040830184610d66565b949350505050565b600060a082019050610e896000830188610c5c565b610e966020830187610c5c565b610ea36040830186610d66565b610eb06060830185610d66565b8181036080830152610ec28184610cd8565b90509695505050505050565b6000602082019050610ee36000830184610cc9565b92915050565b60006020820190508181036000830152610f0281610d11565b9050919050565b60006020820190508181036000830152610f2281610d34565b9050919050565b6000610f33610f44565b9050610f3f82826110bb565b919050565b6000604051905090565b600067ffffffffffffffff821115610f6957610f686110ec565b5b602082029050602081019050919050565b600067ffffffffffffffff821115610f9557610f946110ec565b5b610f9e8261111b565b9050602081019050919050565b6000819050602082019050919050565b600081519050919050565b600081519050919050565b6000602082019050919050565b600082825260208201905092915050565b600082825260208201905092915050565b600082825260208201905092915050565b600061101c8261104f565b9050919050565b60007fffffffff0000000000000000000000000000000000000000000000000000000082169050919050565b600073ffffffffffffffffffffffffffffffffffffffff82169050919050565b6000819050919050565b82818337600083830152505050565b60005b838110156110a657808201518184015260208101905061108b565b838111156110b5576000848401525b50505050565b6110c48261111b565b810181811067ffffffffffffffff821117156110e3576110e26110ec565b5b80604052505050565b7f4e487b7100000000000000000000000000000000000000000000000000000000600052604160045260246000fd5b6000601f19601f8301169050919050565b7f4f776e61626c653a206e6577206f776e657220697320746865207a65726f206160008201527f6464726573730000000000000000000000000000000000000000000000000000602082015250565b7f4f776e61626c653a2063616c6c6572206973206e6f7420746865206f776e6572600082015250565b6111ad81611011565b81146111b857600080fd5b50565b6111c48161106f565b81146111cf57600080fd5b5056fea26469706673582212202411a3f6f78b43352b50104982bd443cb331ef071defbd76c804c230c233a73964736f6c63430008040033",
  "linkReferences": {},
  "deployedLinkReferences": {}
}