{
  "_format": "hh-sol-artifact-1",
  "contractName": "NFTCollection1155",
  "sourceName": "contracts/1155.sol",
  "abi": [
    {
      "inputs": [
        {
          "internalType": "string",
          "name": "collectionMetadaURI",
          "type": "string"
        },
        {
          "internalType": "uint256",
          "name": "_mintingFee",
          "type": "uint256"
        },
        {
          "internalType": "uint16",
          "name": "_maxTokens",
          "type": "uint16"
        },
        {
          "internalType": "bool",
          "name": "_limitedCollection",
          "type": "bool"
        },
        {
          "internalType": "bool",
          "name": "_onlyOwnerCanMint",
          "type": "bool"
        }
      ],
      "stateMutability": "nonpayable",
      "type": "constructor"
    },
    {
      "anonymous": false,
      "inputs": [
        {
          "indexed": true,
          "internalType": "address",
          "name": "account",
          "type": "address"
        },
        {
          "indexed": true,
          "internalType": "address",
          "name": "operator",
          "type": "address"
        },
        {
          "indexed": false,
          "internalType": "bool",
          "name": "approved",
          "type": "bool"
        }
      ],
      "name": "ApprovalForAll",
      "type": "event"
    },
    {
      "anonymous": false,
      "inputs": [
        {
          "indexed": true,
          "internalType": "address",
          "name": "_from",
          "type": "address"
        },
        {
          "indexed": false,
          "internalType": "uint256",
          "name": "id",
          "type": "uint256"
        },
        {
          "indexed": false,
          "internalType": "uint16",
          "name": "copies",
          "type": "uint16"
        }
      ],
      "name": "Minted",
      "type": "event"
    },
    {
      "anonymous": false,
      "inputs": [
        {
          "indexed": true,
          "internalType": "address",
          "name": "previousOwner",
          "type": "address"
        },
        {
          "indexed": true,
          "internalType": "address",
          "name": "newOwner",
          "type": "address"
        }
      ],
      "name": "OwnershipTransferred",
      "type": "event"
    },
    {
      "anonymous": false,
      "inputs": [
        {
          "indexed": true,
          "internalType": "address",
          "name": "operator",
          "type": "address"
        },
        {
          "indexed": true,
          "internalType": "address",
          "name": "from",
          "type": "address"
        },
        {
          "indexed": true,
          "internalType": "address",
          "name": "to",
          "type": "address"
        },
        {
          "indexed": false,
          "internalType": "uint256[]",
          "name": "ids",
          "type": "uint256[]"
        },
        {
          "indexed": false,
          "internalType": "uint256[]",
          "name": "values",
          "type": "uint256[]"
        }
      ],
      "name": "TransferBatch",
      "type": "event"
    },
    {
      "anonymous": false,
      "inputs": [
        {
          "indexed": true,
          "internalType": "address",
          "name": "operator",
          "type": "address"
        },
        {
          "indexed": true,
          "internalType": "address",
          "name": "from",
          "type": "address"
        },
        {
          "indexed": true,
          "internalType": "address",
          "name": "to",
          "type": "address"
        },
        {
          "indexed": false,
          "internalType": "uint256",
          "name": "id",
          "type": "uint256"
        },
        {
          "indexed": false,
          "internalType": "uint256",
          "name": "value",
          "type": "uint256"
        }
      ],
      "name": "TransferSingle",
      "type": "event"
    },
    {
      "anonymous": false,
      "inputs": [
        {
          "indexed": false,
          "internalType": "string",
          "name": "value",
          "type": "string"
        },
        {
          "indexed": true,
          "internalType": "uint256",
          "name": "id",
          "type": "uint256"
        }
      ],
      "name": "URI",
      "type": "event"
    },
    {
      "inputs": [
        {
          "internalType": "address",
          "name": "account",
          "type": "address"
        },
        {
          "internalType": "uint256",
          "name": "id",
          "type": "uint256"
        }
      ],
      "name": "balanceOf",
      "outputs": [
        {
          "internalType": "uint256",
          "name": "",
          "type": "uint256"
        }
      ],
      "stateMutability": "view",
      "type": "function"
    },
    {
      "inputs": [
        {
          "internalType": "address[]",
          "name": "accounts",
          "type": "address[]"
        },
        {
          "internalType": "uint256[]",
          "name": "ids",
          "type": "uint256[]"
        }
      ],
      "name": "balanceOfBatch",
      "outputs": [
        {
          "internalType": "uint256[]",
          "name": "",
          "type": "uint256[]"
        }
      ],
      "stateMutability": "view",
      "type": "function"
    },
    {
      "inputs": [
        {
          "internalType": "uint256",
          "name": "id",
          "type": "uint256"
        }
      ],
      "name": "exists",
      "outputs": [
        {
          "internalType": "bool",
          "name": "",
          "type": "bool"
        }
      ],
      "stateMutability": "view",
      "type": "function"
    },
    {
      "inputs": [],
      "name": "getBalance",
      "outputs": [
        {
          "internalType": "uint256",
          "name": "",
          "type": "uint256"
        }
      ],
      "stateMutability": "view",
      "type": "function"
    },
    {
      "inputs": [
        {
          "internalType": "address",
          "name": "account",
          "type": "address"
        },
        {
          "internalType": "address",
          "name": "operator",
          "type": "address"
        }
      ],
      "name": "isApprovedForAll",
      "outputs": [
        {
          "internalType": "bool",
          "name": "",
          "type": "bool"
        }
      ],
      "stateMutability": "view",
      "type": "function"
    },
    {
      "inputs": [
        {
          "internalType": "uint16",
          "name": "_maxTokens",
          "type": "uint16"
        }
      ],
      "name": "limitCollection",
      "outputs": [],
      "stateMutability": "nonpayable",
      "type": "function"
    },
    {
      "inputs": [],
      "name": "limitedCollection",
      "outputs": [
        {
          "internalType": "bool",
          "name": "",
          "type": "bool"
        }
      ],
      "stateMutability": "view",
      "type": "function"
    },
    {
      "inputs": [],
      "name": "maxTokens",
      "outputs": [
        {
          "internalType": "uint16",
          "name": "",
          "type": "uint16"
        }
      ],
      "stateMutability": "view",
      "type": "function"
    },
    {
      "inputs": [
        {
          "internalType": "string[]",
          "name": "tokenURI",
          "type": "string[]"
        },
        {
          "internalType": "uint16[]",
          "name": "copies",
          "type": "uint16[]"
        },
        {
          "internalType": "uint16",
          "name": "amount",
          "type": "uint16"
        }
      ],
      "name": "mintManyToken",
      "outputs": [
        {
          "internalType": "uint256[]",
          "name": "",
          "type": "uint256[]"
        }
      ],
      "stateMutability": "payable",
      "type": "function"
    },
    {
      "inputs": [
        {
          "internalType": "string",
          "name": "tokenURI",
          "type": "string"
        },
        {
          "internalType": "uint16",
          "name": "copies",
          "type": "uint16"
        }
      ],
      "name": "mintToken",
      "outputs": [
        {
          "internalType": "uint256",
          "name": "",
          "type": "uint256"
        }
      ],
      "stateMutability": "payable",
      "type": "function"
    },
    {
      "inputs": [],
      "name": "owner",
      "outputs": [
        {
          "internalType": "address",
          "name": "",
          "type": "address"
        }
      ],
      "stateMutability": "view",
      "type": "function"
    },
    {
      "inputs": [],
      "name": "renounceOwnership",
      "outputs": [],
      "stateMutability": "nonpayable",
      "type": "function"
    },
    {
      "inputs": [],
      "name": "restrictMinting",
      "outputs": [],
      "stateMutability": "nonpayable",
      "type": "function"
    },
    {
      "inputs": [
        {
          "internalType": "address",
          "name": "from",
          "type": "address"
        },
        {
          "internalType": "address",
          "name": "to",
          "type": "address"
        },
        {
          "internalType": "uint256[]",
          "name": "ids",
          "type": "uint256[]"
        },
        {
          "internalType": "uint256[]",
          "name": "amounts",
          "type": "uint256[]"
        },
        {
          "internalType": "bytes",
          "name": "data",
          "type": "bytes"
        }
      ],
      "name": "safeBatchTransferFrom",
      "outputs": [],
      "stateMutability": "nonpayable",
      "type": "function"
    },
    {
      "inputs": [
        {
          "internalType": "address",
          "name": "from",
          "type": "address"
        },
        {
          "internalType": "address",
          "name": "to",
          "type": "address"
        },
        {
          "internalType": "uint256",
          "name": "id",
          "type": "uint256"
        },
        {
          "internalType": "uint256",
          "name": "amount",
          "type": "uint256"
        },
        {
          "internalType": "bytes",
          "name": "data",
          "type": "bytes"
        }
      ],
      "name": "safeTransferFrom",
      "outputs": [],
      "stateMutability": "nonpayable",
      "type": "function"
    },
    {
      "inputs": [
        {
          "internalType": "address",
          "name": "operator",
          "type": "address"
        },
        {
          "internalType": "bool",
          "name": "approved",
          "type": "bool"
        }
      ],
      "name": "setApprovalForAll",
      "outputs": [],
      "stateMutability": "nonpayable",
      "type": "function"
    },
    {
      "inputs": [
        {
          "internalType": "uint256",
          "name": "_mintingFee",
          "type": "uint256"
        }
      ],
      "name": "setMintingFee",
      "outputs": [],
      "stateMutability": "nonpayable",
      "type": "function"
    },
    {
      "inputs": [
        {
          "internalType": "bytes4",
          "name": "interfaceId",
          "type": "bytes4"
        }
      ],
      "name": "supportsInterface",
      "outputs": [
        {
          "internalType": "bool",
          "name": "",
          "type": "bool"
        }
      ],
      "stateMutability": "view",
      "type": "function"
    },
    {
      "inputs": [
        {
          "internalType": "uint256",
          "name": "id",
          "type": "uint256"
        }
      ],
      "name": "totalSupply",
      "outputs": [
        {
          "internalType": "uint256",
          "name": "",
          "type": "uint256"
        }
      ],
      "stateMutability": "view",
      "type": "function"
    },
    {
      "inputs": [
        {
          "internalType": "address",
          "name": "newOwner",
          "type": "address"
        }
      ],
      "name": "transferOwnership",
      "outputs": [],
      "stateMutability": "nonpayable",
      "type": "function"
    },
    {
      "inputs": [],
      "name": "unrestrictMinting",
      "outputs": [],
      "stateMutability": "nonpayable",
      "type": "function"
    },
    {
      "inputs": [
        {
          "internalType": "uint256",
          "name": "",
          "type": "uint256"
        }
      ],
      "name": "uri",
      "outputs": [
        {
          "internalType": "string",
          "name": "",
          "type": "string"
        }
      ],
      "stateMutability": "view",
      "type": "function"
    },
    {
      "inputs": [],
      "name": "withdrawBalance",
      "outputs": [],
      "stateMutability": "nonpayable",
      "type": "function"
    }
  ],
  "bytecode": "0x60806040523480156200001157600080fd5b506040516200496938038062004969833981810160405281019062000037919062000326565b846200004981620000d560201b60201c565b506200006a6200005e620000f160201b60201c565b620000f960201b60201c565b60016005819055508360078190555082600860006101000a81548161ffff021916908361ffff16021790555081600860026101000a81548160ff02191690831515021790555080600860036101000a81548160ff0219169083151502179055505050505050620005a3565b8060029080519060200190620000ed929190620001bf565b5050565b600033905090565b6000600460009054906101000a900473ffffffffffffffffffffffffffffffffffffffff16905081600460006101000a81548173ffffffffffffffffffffffffffffffffffffffff021916908373ffffffffffffffffffffffffffffffffffffffff1602179055508173ffffffffffffffffffffffffffffffffffffffff168173ffffffffffffffffffffffffffffffffffffffff167f8be0079c531659141344cd1fd0a4f28419497f9722a3daafe3b4186f6b6457e060405160405180910390a35050565b828054620001cd906200047a565b90600052602060002090601f016020900481019282620001f157600085556200023d565b82601f106200020c57805160ff19168380011785556200023d565b828001600101855582156200023d579182015b828111156200023c5782518255916020019190600101906200021f565b5b5090506200024c919062000250565b5090565b5b808211156200026b57600081600090555060010162000251565b5090565b6000620002866200028084620003ea565b620003c1565b9050828152602081018484840111156200029f57600080fd5b620002ac84828562000444565b509392505050565b600081519050620002c58162000555565b92915050565b600082601f830112620002dd57600080fd5b8151620002ef8482602086016200026f565b91505092915050565b60008151905062000309816200056f565b92915050565b600081519050620003208162000589565b92915050565b600080600080600060a086880312156200033f57600080fd5b600086015167ffffffffffffffff8111156200035a57600080fd5b6200036888828901620002cb565b95505060206200037b888289016200030f565b94505060406200038e88828901620002f8565b9350506060620003a188828901620002b4565b9250506080620003b488828901620002b4565b9150509295509295909350565b6000620003cd620003e0565b9050620003db8282620004b0565b919050565b6000604051905090565b600067ffffffffffffffff82111562000408576200040762000515565b5b620004138262000544565b9050602081019050919050565b60008115159050919050565b600061ffff82169050919050565b6000819050919050565b60005b838110156200046457808201518184015260208101905062000447565b8381111562000474576000848401525b50505050565b600060028204905060018216806200049357607f821691505b60208210811415620004aa57620004a9620004e6565b5b50919050565b620004bb8262000544565b810181811067ffffffffffffffff82111715620004dd57620004dc62000515565b5b80604052505050565b7f4e487b7100000000000000000000000000000000000000000000000000000000600052602260045260246000fd5b7f4e487b7100000000000000000000000000000000000000000000000000000000600052604160045260246000fd5b6000601f19601f8301169050919050565b620005608162000420565b81146200056c57600080fd5b50565b6200057a816200042c565b81146200058657600080fd5b50565b62000594816200043a565b8114620005a057600080fd5b50565b6143b680620005b36000396000f3fe60806040526004361061013f5760003560e01c80635fd8c710116100b6578063cfa35a3e1161006f578063cfa35a3e14610438578063e831574214610463578063e985e9c51461048e578063f0a8f17c146104cb578063f242432a146104fb578063f2fde38b146105245761013f565b80635fd8c71014610362578063715018a6146103795780638da5cb5b146103905780639129308d146103bb578063a22cb465146103d2578063bd85b039146103fb5761013f565b80632eb2c2d6116101085780632eb2c2d61461024f578063303402dd146102785780633c9757b91461028f5780634e1273f4146102bf5780634f558e79146102fc5780635c624f90146103395761013f565b8062fdd58e1461014457806301ffc9a7146101815780630e89341c146101be57806312065fe0146101fb578063238a470914610226575b600080fd5b34801561015057600080fd5b5061016b60048036038101906101669190612e44565b61054d565b604051610178919061381d565b60405180910390f35b34801561018d57600080fd5b506101a860048036038101906101a39190612f6b565b610616565b6040516101b59190613565565b60405180910390f35b3480156101ca57600080fd5b506101e560048036038101906101e0919061303a565b6106f8565b6040516101f29190613580565b60405180910390f35b34801561020757600080fd5b5061021061078c565b60405161021d919061381d565b60405180910390f35b34801561023257600080fd5b5061024d6004803603810190610248919061303a565b610794565b005b34801561025b57600080fd5b5061027660048036038101906102719190612cba565b61081a565b005b34801561028457600080fd5b5061028d6108bb565b005b6102a960048036038101906102a49190612eec565b610974565b6040516102b6919061350c565b60405180910390f35b3480156102cb57600080fd5b506102e660048036038101906102e19190612e80565b610d4a565b6040516102f3919061350c565b60405180910390f35b34801561030857600080fd5b50610323600480360381019061031e919061303a565b610efb565b6040516103309190613565565b60405180910390f35b34801561034557600080fd5b50610360600480360381019061035b9190613011565b610f0f565b005b34801561036e57600080fd5b5061037761106c565b005b34801561038557600080fd5b5061038e611138565b005b34801561039c57600080fd5b506103a56111c0565b6040516103b2919061342f565b60405180910390f35b3480156103c757600080fd5b506103d06111ea565b005b3480156103de57600080fd5b506103f960048036038101906103f49190612e08565b6112a3565b005b34801561040757600080fd5b50610422600480360381019061041d919061303a565b6112b9565b60405161042f919061381d565b60405180910390f35b34801561044457600080fd5b5061044d6112d6565b60405161045a9190613565565b60405180910390f35b34801561046f57600080fd5b506104786112e9565b6040516104859190613802565b60405180910390f35b34801561049a57600080fd5b506104b560048036038101906104b09190612c7e565b6112fd565b6040516104c29190613565565b60405180910390f35b6104e560048036038101906104e09190612fbd565b611391565b6040516104f2919061381d565b60405180910390f35b34801561050757600080fd5b50610522600480360381019061051d9190612d79565b61152d565b005b34801561053057600080fd5b5061054b60048036038101906105469190612c55565b6115ce565b005b60008073ffffffffffffffffffffffffffffffffffffffff168373ffffffffffffffffffffffffffffffffffffffff1614156105be576040517f08c379a00000000000000000000000000000000000000000000000000000000081526004016105b590613622565b60405180910390fd5b60008083815260200190815260200160002060008473ffffffffffffffffffffffffffffffffffffffff1673ffffffffffffffffffffffffffffffffffffffff16815260200190815260200160002054905092915050565b60007fd9b67a26000000000000000000000000000000000000000000000000000000007bffffffffffffffffffffffffffffffffffffffffffffffffffffffff1916827bffffffffffffffffffffffffffffffffffffffffffffffffffffffff191614806106e157507f0e89341c000000000000000000000000000000000000000000000000000000007bffffffffffffffffffffffffffffffffffffffffffffffffffffffff1916827bffffffffffffffffffffffffffffffffffffffffffffffffffffffff1916145b806106f157506106f0826116c6565b5b9050919050565b60606002805461070790613bda565b80601f016020809104026020016040519081016040528092919081815260200182805461073390613bda565b80156107805780601f1061075557610100808354040283529160200191610780565b820191906000526020600020905b81548152906001019060200180831161076357829003601f168201915b50505050509050919050565b600047905090565b61079c611730565b73ffffffffffffffffffffffffffffffffffffffff166107ba6111c0565b73ffffffffffffffffffffffffffffffffffffffff1614610810576040517f08c379a0000000000000000000000000000000000000000000000000000000008152600401610807906136e2565b60405180910390fd5b8060078190555050565b610822611730565b73ffffffffffffffffffffffffffffffffffffffff168573ffffffffffffffffffffffffffffffffffffffff161480610868575061086785610862611730565b6112fd565b5b6108a7576040517f08c379a000000000000000000000000000000000000000000000000000000000815260040161089e906136a2565b60405180910390fd5b6108b48585858585611738565b5050505050565b6108c3611730565b73ffffffffffffffffffffffffffffffffffffffff166108e16111c0565b73ffffffffffffffffffffffffffffffffffffffff1614610937576040517f08c379a000000000000000000000000000000000000000000000000000000000815260040161092e906136e2565b60405180910390fd5b60011515600860039054906101000a900460ff1615151461095757600080fd5b6000600860036101000a81548160ff021916908315150217905550565b6060600260055414156109bc576040517f08c379a00000000000000000000000000000000000000000000000000000000081526004016109b3906137c2565b60405180910390fd5b6002600581905550600860039054906101000a900460ff1615610a56576109e1611730565b73ffffffffffffffffffffffffffffffffffffffff166109ff6111c0565b73ffffffffffffffffffffffffffffffffffffffff1614610a55576040517f08c379a0000000000000000000000000000000000000000000000000000000008152600401610a4c906136e2565b60405180910390fd5b5b600860029054906101000a900460ff1615610ada57610a756006611a98565b8261ffff16610a849190613a32565b600860009054906101000a900461ffff1661ffff1611610ad9576040517f08c379a0000000000000000000000000000000000000000000000000000000008152600401610ad090613702565b60405180910390fd5b5b8161ffff16845114610b21576040517f08c379a0000000000000000000000000000000000000000000000000000000008152600401610b18906137e2565b60405180910390fd5b8161ffff16835114610b68576040517f08c379a0000000000000000000000000000000000000000000000000000000008152600401610b5f90613602565b60405180910390fd5b8161ffff16600754610b7a9190613a88565b341015610b8657600080fd5b60008261ffff1667ffffffffffffffff811115610bcc577f4e487b7100000000000000000000000000000000000000000000000000000000600052604160045260246000fd5b604051908082528060200260200182016040528015610bfa5781602001602082028036833780820191505090505b50905060005b8361ffff168161ffff161015610d3657610c1a6006611aa6565b6000610c266006611a98565b9050610c8b3382888561ffff1681518110610c6a577f4e487b7100000000000000000000000000000000000000000000000000000000600052603260045260246000fd5b602002602001015161ffff1660405180602001604052806000815250611abc565b610cd8878361ffff1681518110610ccb577f4e487b7100000000000000000000000000000000000000000000000000000000600052603260045260246000fd5b6020026020010151611c52565b80838361ffff1681518110610d16577f4e487b7100000000000000000000000000000000000000000000000000000000600052603260045260246000fd5b602002602001018181525050508080610d2e90613c3d565b915050610c00565b508091505060016005819055509392505050565b60608151835114610d90576040517f08c379a0000000000000000000000000000000000000000000000000000000008152600401610d8790613762565b60405180910390fd5b6000835167ffffffffffffffff811115610dd3577f4e487b7100000000000000000000000000000000000000000000000000000000600052604160045260246000fd5b604051908082528060200260200182016040528015610e015781602001602082028036833780820191505090505b50905060005b8451811015610ef057610e9a858281518110610e4c577f4e487b7100000000000000000000000000000000000000000000000000000000600052603260045260246000fd5b6020026020010151858381518110610e8d577f4e487b7100000000000000000000000000000000000000000000000000000000600052603260045260246000fd5b602002602001015161054d565b828281518110610ed3577f4e487b7100000000000000000000000000000000000000000000000000000000600052603260045260246000fd5b60200260200101818152505080610ee990613c68565b9050610e07565b508091505092915050565b600080610f07836112b9565b119050919050565b610f17611730565b73ffffffffffffffffffffffffffffffffffffffff16610f356111c0565b73ffffffffffffffffffffffffffffffffffffffff1614610f8b576040517f08c379a0000000000000000000000000000000000000000000000000000000008152600401610f82906136e2565b60405180910390fd5b60001515600860029054906101000a900460ff16151514610fe1576040517f08c379a0000000000000000000000000000000000000000000000000000000008152600401610fd8906135e2565b60405180910390fd5b610feb6006611a98565b8161ffff161015611031576040517f08c379a000000000000000000000000000000000000000000000000000000000815260040161102890613722565b60405180910390fd5b6001600860026101000a81548160ff02191690831515021790555080600860006101000a81548161ffff021916908361ffff16021790555050565b611074611730565b73ffffffffffffffffffffffffffffffffffffffff166110926111c0565b73ffffffffffffffffffffffffffffffffffffffff16146110e8576040517f08c379a00000000000000000000000000000000000000000000000000000000081526004016110df906136e2565b60405180910390fd5b6110f06111c0565b73ffffffffffffffffffffffffffffffffffffffff166108fc479081150290604051600060405180830381858888f19350505050158015611135573d6000803e3d6000fd5b50565b611140611730565b73ffffffffffffffffffffffffffffffffffffffff1661115e6111c0565b73ffffffffffffffffffffffffffffffffffffffff16146111b4576040517f08c379a00000000000000000000000000000000000000000000000000000000081526004016111ab906136e2565b60405180910390fd5b6111be6000611c6c565b565b6000600460009054906101000a900473ffffffffffffffffffffffffffffffffffffffff16905090565b6111f2611730565b73ffffffffffffffffffffffffffffffffffffffff166112106111c0565b73ffffffffffffffffffffffffffffffffffffffff1614611266576040517f08c379a000000000000000000000000000000000000000000000000000000000815260040161125d906136e2565b60405180910390fd5b60001515600860039054906101000a900460ff1615151461128657600080fd5b6001600860036101000a81548160ff021916908315150217905550565b6112b56112ae611730565b8383611d32565b5050565b600060036000838152602001908152602001600020549050919050565b600860029054906101000a900460ff1681565b600860009054906101000a900461ffff1681565b6000600160008473ffffffffffffffffffffffffffffffffffffffff1673ffffffffffffffffffffffffffffffffffffffff16815260200190815260200160002060008373ffffffffffffffffffffffffffffffffffffffff1673ffffffffffffffffffffffffffffffffffffffff16815260200190815260200160002060009054906101000a900460ff16905092915050565b6000600260055414156113d9576040517f08c379a00000000000000000000000000000000000000000000000000000000081526004016113d0906137c2565b60405180910390fd5b6002600581905550600860039054906101000a900460ff1615611473576113fe611730565b73ffffffffffffffffffffffffffffffffffffffff1661141c6111c0565b73ffffffffffffffffffffffffffffffffffffffff1614611472576040517f08c379a0000000000000000000000000000000000000000000000000000000008152600401611469906136e2565b60405180910390fd5b5b60075434101561148257600080fd5b61148c6006611aa6565b60006114986006611a98565b90506114b933828561ffff1660405180602001604052806000815250611abc565b6114c284611c52565b3373ffffffffffffffffffffffffffffffffffffffff167fde70fd77b90ae56c6a53d7e8260c92f32b3edf40e6188ca10f910b255af182896115046006611a98565b85604051611513929190613838565b60405180910390a280915050600160058190555092915050565b611535611730565b73ffffffffffffffffffffffffffffffffffffffff168573ffffffffffffffffffffffffffffffffffffffff16148061157b575061157a85611575611730565b6112fd565b5b6115ba576040517f08c379a00000000000000000000000000000000000000000000000000000000081526004016115b190613662565b60405180910390fd5b6115c78585858585611e9f565b5050505050565b6115d6611730565b73ffffffffffffffffffffffffffffffffffffffff166115f46111c0565b73ffffffffffffffffffffffffffffffffffffffff161461164a576040517f08c379a0000000000000000000000000000000000000000000000000000000008152600401611641906136e2565b60405180910390fd5b600073ffffffffffffffffffffffffffffffffffffffff168173ffffffffffffffffffffffffffffffffffffffff1614156116ba576040517f08c379a00000000000000000000000000000000000000000000000000000000081526004016116b190613642565b60405180910390fd5b6116c381611c6c565b50565b60007f01ffc9a7000000000000000000000000000000000000000000000000000000007bffffffffffffffffffffffffffffffffffffffffffffffffffffffff1916827bffffffffffffffffffffffffffffffffffffffffffffffffffffffff1916149050919050565b600033905090565b815183511461177c576040517f08c379a000000000000000000000000000000000000000000000000000000000815260040161177390613782565b60405180910390fd5b600073ffffffffffffffffffffffffffffffffffffffff168473ffffffffffffffffffffffffffffffffffffffff1614156117ec576040517f08c379a00000000000000000000000000000000000000000000000000000000081526004016117e390613682565b60405180910390fd5b60006117f6611730565b9050611806818787878787612121565b60005b8451811015611a0357600085828151811061184d577f4e487b7100000000000000000000000000000000000000000000000000000000600052603260045260246000fd5b602002602001015190506000858381518110611892577f4e487b7100000000000000000000000000000000000000000000000000000000600052603260045260246000fd5b60200260200101519050600080600084815260200190815260200160002060008b73ffffffffffffffffffffffffffffffffffffffff1673ffffffffffffffffffffffffffffffffffffffff16815260200190815260200160002054905081811015611933576040517f08c379a000000000000000000000000000000000000000000000000000000000815260040161192a906136c2565b60405180910390fd5b81810360008085815260200190815260200160002060008c73ffffffffffffffffffffffffffffffffffffffff1673ffffffffffffffffffffffffffffffffffffffff168152602001908152602001600020819055508160008085815260200190815260200160002060008b73ffffffffffffffffffffffffffffffffffffffff1673ffffffffffffffffffffffffffffffffffffffff16815260200190815260200160002060008282546119e89190613a32565b92505081905550505050806119fc90613c68565b9050611809565b508473ffffffffffffffffffffffffffffffffffffffff168673ffffffffffffffffffffffffffffffffffffffff168273ffffffffffffffffffffffffffffffffffffffff167f4a39dc06d4c0dbc64b70af90fd698a233a518aa5d07e595d983b8c0526c8f7fb8787604051611a7a92919061352e565b60405180910390a4611a90818787878787612333565b505050505050565b600081600001549050919050565b6001816000016000828254019250508190555050565b600073ffffffffffffffffffffffffffffffffffffffff168473ffffffffffffffffffffffffffffffffffffffff161415611b2c576040517f08c379a0000000000000000000000000000000000000000000000000000000008152600401611b23906137a2565b60405180910390fd5b6000611b36611730565b9050611b5781600087611b488861251a565b611b518861251a565b87612121565b8260008086815260200190815260200160002060008773ffffffffffffffffffffffffffffffffffffffff1673ffffffffffffffffffffffffffffffffffffffff1681526020019081526020016000206000828254611bb69190613a32565b925050819055508473ffffffffffffffffffffffffffffffffffffffff16600073ffffffffffffffffffffffffffffffffffffffff168273ffffffffffffffffffffffffffffffffffffffff167fc3d58168c5ae7397731d063d5bbf3d657854427343f4c083240f7aacaa2d0f628787604051611c34929190613861565b60405180910390a4611c4b816000878787876125e0565b5050505050565b8060029080519060200190611c689291906127f2565b5050565b6000600460009054906101000a900473ffffffffffffffffffffffffffffffffffffffff16905081600460006101000a81548173ffffffffffffffffffffffffffffffffffffffff021916908373ffffffffffffffffffffffffffffffffffffffff1602179055508173ffffffffffffffffffffffffffffffffffffffff168173ffffffffffffffffffffffffffffffffffffffff167f8be0079c531659141344cd1fd0a4f28419497f9722a3daafe3b4186f6b6457e060405160405180910390a35050565b8173ffffffffffffffffffffffffffffffffffffffff168373ffffffffffffffffffffffffffffffffffffffff161415611da1576040517f08c379a0000000000000000000000000000000000000000000000000000000008152600401611d9890613742565b60405180910390fd5b80600160008573ffffffffffffffffffffffffffffffffffffffff1673ffffffffffffffffffffffffffffffffffffffff16815260200190815260200160002060008473ffffffffffffffffffffffffffffffffffffffff1673ffffffffffffffffffffffffffffffffffffffff16815260200190815260200160002060006101000a81548160ff0219169083151502179055508173ffffffffffffffffffffffffffffffffffffffff168373ffffffffffffffffffffffffffffffffffffffff167f17307eab39ab6107e8899845ad3d59bd9653f200f220920489ca2b5937696c3183604051611e929190613565565b60405180910390a3505050565b600073ffffffffffffffffffffffffffffffffffffffff168473ffffffffffffffffffffffffffffffffffffffff161415611f0f576040517f08c379a0000000000000000000000000000000000000000000000000000000008152600401611f0690613682565b60405180910390fd5b6000611f19611730565b9050611f39818787611f2a8861251a565b611f338861251a565b87612121565b600080600086815260200190815260200160002060008873ffffffffffffffffffffffffffffffffffffffff1673ffffffffffffffffffffffffffffffffffffffff16815260200190815260200160002054905083811015611fd0576040517f08c379a0000000000000000000000000000000000000000000000000000000008152600401611fc7906136c2565b60405180910390fd5b83810360008087815260200190815260200160002060008973ffffffffffffffffffffffffffffffffffffffff1673ffffffffffffffffffffffffffffffffffffffff168152602001908152602001600020819055508360008087815260200190815260200160002060008873ffffffffffffffffffffffffffffffffffffffff1673ffffffffffffffffffffffffffffffffffffffff16815260200190815260200160002060008282546120859190613a32565b925050819055508573ffffffffffffffffffffffffffffffffffffffff168773ffffffffffffffffffffffffffffffffffffffff168373ffffffffffffffffffffffffffffffffffffffff167fc3d58168c5ae7397731d063d5bbf3d657854427343f4c083240f7aacaa2d0f628888604051612102929190613861565b60405180910390a46121188288888888886125e0565b50505050505050565b61212f8686868686866127c7565b600073ffffffffffffffffffffffffffffffffffffffff168573ffffffffffffffffffffffffffffffffffffffff16141561222d5760005b835181101561222b578281815181106121a9577f4e487b7100000000000000000000000000000000000000000000000000000000600052603260045260246000fd5b6020026020010151600360008684815181106121ee577f4e487b7100000000000000000000000000000000000000000000000000000000600052603260045260246000fd5b6020026020010151815260200190815260200160002060008282546122139190613a32565b925050819055508061222490613c68565b9050612167565b505b600073ffffffffffffffffffffffffffffffffffffffff168473ffffffffffffffffffffffffffffffffffffffff16141561232b5760005b8351811015612329578281815181106122a7577f4e487b7100000000000000000000000000000000000000000000000000000000600052603260045260246000fd5b6020026020010151600360008684815181106122ec577f4e487b7100000000000000000000000000000000000000000000000000000000600052603260045260246000fd5b6020026020010151815260200190815260200160002060008282546123119190613ae2565b925050819055508061232290613c68565b9050612265565b505b505050505050565b6123528473ffffffffffffffffffffffffffffffffffffffff166127cf565b15612512578373ffffffffffffffffffffffffffffffffffffffff1663bc197c8187878686866040518663ffffffff1660e01b815260040161239895949392919061344a565b602060405180830381600087803b1580156123b257600080fd5b505af19250505080156123e357506040513d601f19601f820116820180604052508101906123e09190612f94565b60015b612489576123ef613d3e565b806308c379a0141561244c5750612404614277565b8061240f575061244e565b806040517f08c379a00000000000000000000000000000000000000000000000000000000081526004016124439190613580565b60405180910390fd5b505b6040517f08c379a0000000000000000000000000000000000000000000000000000000008152600401612480906135a2565b60405180910390fd5b63bc197c8160e01b7bffffffffffffffffffffffffffffffffffffffffffffffffffffffff1916817bffffffffffffffffffffffffffffffffffffffffffffffffffffffff191614612510576040517f08c379a0000000000000000000000000000000000000000000000000000000008152600401612507906135c2565b60405180910390fd5b505b505050505050565b60606000600167ffffffffffffffff81111561255f577f4e487b7100000000000000000000000000000000000000000000000000000000600052604160045260246000fd5b60405190808252806020026020018201604052801561258d5781602001602082028036833780820191505090505b50905082816000815181106125cb577f4e487b7100000000000000000000000000000000000000000000000000000000600052603260045260246000fd5b60200260200101818152505080915050919050565b6125ff8473ffffffffffffffffffffffffffffffffffffffff166127cf565b156127bf578373ffffffffffffffffffffffffffffffffffffffff1663f23a6e6187878686866040518663ffffffff1660e01b81526004016126459594939291906134b2565b602060405180830381600087803b15801561265f57600080fd5b505af192505050801561269057506040513d601f19601f8201168201806040525081019061268d9190612f94565b60015b6127365761269c613d3e565b806308c379a014156126f957506126b1614277565b806126bc57506126fb565b806040517f08c379a00000000000000000000000000000000000000000000000000000000081526004016126f09190613580565b60405180910390fd5b505b6040517f08c379a000000000000000000000000000000000000000000000000000000000815260040161272d906135a2565b60405180910390fd5b63f23a6e6160e01b7bffffffffffffffffffffffffffffffffffffffffffffffffffffffff1916817bffffffffffffffffffffffffffffffffffffffffffffffffffffffff1916146127bd576040517f08c379a00000000000000000000000000000000000000000000000000000000081526004016127b4906135c2565b60405180910390fd5b505b505050505050565b505050505050565b6000808273ffffffffffffffffffffffffffffffffffffffff163b119050919050565b8280546127fe90613bda565b90600052602060002090601f0160209004810192826128205760008555612867565b82601f1061283957805160ff1916838001178555612867565b82800160010185558215612867579182015b8281111561286657825182559160200191906001019061284b565b5b5090506128749190612878565b5090565b5b80821115612891576000816000905550600101612879565b5090565b60006128a86128a3846138af565b61388a565b905080838252602082019050828560208602820111156128c757600080fd5b60005b858110156128f757816128dd8882612adb565b8452602084019350602083019250506001810190506128ca565b5050509392505050565b600061291461290f846138db565b61388a565b9050808382526020820190508285602086028201111561293357600080fd5b60005b8581101561297d57813567ffffffffffffffff81111561295557600080fd5b8086016129628982612c01565b85526020850194506020840193505050600181019050612936565b5050509392505050565b600061299a61299584613907565b61388a565b905080838252602082019050828560208602820111156129b957600080fd5b60005b858110156129e957816129cf8882612c2b565b8452602084019350602083019250506001810190506129bc565b5050509392505050565b6000612a06612a0184613933565b61388a565b90508083825260208201905082856020860282011115612a2557600080fd5b60005b85811015612a555781612a3b8882612c40565b845260208401935060208301925050600181019050612a28565b5050509392505050565b6000612a72612a6d8461395f565b61388a565b905082815260208101848484011115612a8a57600080fd5b612a95848285613b98565b509392505050565b6000612ab0612aab84613990565b61388a565b905082815260208101848484011115612ac857600080fd5b612ad3848285613b98565b509392505050565b600081359050612aea8161430d565b92915050565b600082601f830112612b0157600080fd5b8135612b11848260208601612895565b91505092915050565b600082601f830112612b2b57600080fd5b8135612b3b848260208601612901565b91505092915050565b600082601f830112612b5557600080fd5b8135612b65848260208601612987565b91505092915050565b600082601f830112612b7f57600080fd5b8135612b8f8482602086016129f3565b91505092915050565b600081359050612ba781614324565b92915050565b600081359050612bbc8161433b565b92915050565b600081519050612bd18161433b565b92915050565b600082601f830112612be857600080fd5b8135612bf8848260208601612a5f565b91505092915050565b600082601f830112612c1257600080fd5b8135612c22848260208601612a9d565b91505092915050565b600081359050612c3a81614352565b92915050565b600081359050612c4f81614369565b92915050565b600060208284031215612c6757600080fd5b6000612c7584828501612adb565b91505092915050565b60008060408385031215612c9157600080fd5b6000612c9f85828601612adb565b9250506020612cb085828601612adb565b9150509250929050565b600080600080600060a08688031215612cd257600080fd5b6000612ce088828901612adb565b9550506020612cf188828901612adb565b945050604086013567ffffffffffffffff811115612d0e57600080fd5b612d1a88828901612b6e565b935050606086013567ffffffffffffffff811115612d3757600080fd5b612d4388828901612b6e565b925050608086013567ffffffffffffffff811115612d6057600080fd5b612d6c88828901612bd7565b9150509295509295909350565b600080600080600060a08688031215612d9157600080fd5b6000612d9f88828901612adb565b9550506020612db088828901612adb565b9450506040612dc188828901612c40565b9350506060612dd288828901612c40565b925050608086013567ffffffffffffffff811115612def57600080fd5b612dfb88828901612bd7565b9150509295509295909350565b60008060408385031215612e1b57600080fd5b6000612e2985828601612adb565b9250506020612e3a85828601612b98565b9150509250929050565b60008060408385031215612e5757600080fd5b6000612e6585828601612adb565b9250506020612e7685828601612c40565b9150509250929050565b60008060408385031215612e9357600080fd5b600083013567ffffffffffffffff811115612ead57600080fd5b612eb985828601612af0565b925050602083013567ffffffffffffffff811115612ed657600080fd5b612ee285828601612b6e565b9150509250929050565b600080600060608486031215612f0157600080fd5b600084013567ffffffffffffffff811115612f1b57600080fd5b612f2786828701612b1a565b935050602084013567ffffffffffffffff811115612f4457600080fd5b612f5086828701612b44565b9250506040612f6186828701612c2b565b9150509250925092565b600060208284031215612f7d57600080fd5b6000612f8b84828501612bad565b91505092915050565b600060208284031215612fa657600080fd5b6000612fb484828501612bc2565b91505092915050565b60008060408385031215612fd057600080fd5b600083013567ffffffffffffffff811115612fea57600080fd5b612ff685828601612c01565b925050602061300785828601612c2b565b9150509250929050565b60006020828403121561302357600080fd5b600061303184828501612c2b565b91505092915050565b60006020828403121561304c57600080fd5b600061305a84828501612c40565b91505092915050565b600061306f8383613411565b60208301905092915050565b61308481613b16565b82525050565b6000613095826139d1565b61309f81856139ff565b93506130aa836139c1565b8060005b838110156130db5781516130c28882613063565b97506130cd836139f2565b9250506001810190506130ae565b5085935050505092915050565b6130f181613b28565b82525050565b6000613102826139dc565b61310c8185613a10565b935061311c818560208601613ba7565b61312581613d60565b840191505092915050565b600061313b826139e7565b6131458185613a21565b9350613155818560208601613ba7565b61315e81613d60565b840191505092915050565b6000613176603483613a21565b915061318182613d7e565b604082019050919050565b6000613199602883613a21565b91506131a482613dcd565b604082019050919050565b60006131bc601b83613a21565b91506131c782613e1c565b602082019050919050565b60006131df601f83613a21565b91506131ea82613e45565b602082019050919050565b6000613202602b83613a21565b915061320d82613e6e565b604082019050919050565b6000613225602683613a21565b915061323082613ebd565b604082019050919050565b6000613248602983613a21565b915061325382613f0c565b604082019050919050565b600061326b602583613a21565b915061327682613f5b565b604082019050919050565b600061328e603283613a21565b915061329982613faa565b604082019050919050565b60006132b1602a83613a21565b91506132bc82613ff9565b604082019050919050565b60006132d4602083613a21565b91506132df82614048565b602082019050919050565b60006132f7601e83613a21565b915061330282614071565b602082019050919050565b600061331a602383613a21565b91506133258261409a565b604082019050919050565b600061333d602983613a21565b9150613348826140e9565b604082019050919050565b6000613360602983613a21565b915061336b82614138565b604082019050919050565b6000613383602883613a21565b915061338e82614187565b604082019050919050565b60006133a6602183613a21565b91506133b1826141d6565b604082019050919050565b60006133c9601f83613a21565b91506133d482614225565b602082019050919050565b60006133ec601883613a21565b91506133f78261424e565b602082019050919050565b61340b81613b60565b82525050565b61341a81613b8e565b82525050565b61342981613b8e565b82525050565b6000602082019050613444600083018461307b565b92915050565b600060a08201905061345f600083018861307b565b61346c602083018761307b565b818103604083015261347e818661308a565b90508181036060830152613492818561308a565b905081810360808301526134a681846130f7565b90509695505050505050565b600060a0820190506134c7600083018861307b565b6134d4602083018761307b565b6134e16040830186613420565b6134ee6060830185613420565b818103608083015261350081846130f7565b90509695505050505050565b60006020820190508181036000830152613526818461308a565b905092915050565b60006040820190508181036000830152613548818561308a565b9050818103602083015261355c818461308a565b90509392505050565b600060208201905061357a60008301846130e8565b92915050565b6000602082019050818103600083015261359a8184613130565b905092915050565b600060208201905081810360008301526135bb81613169565b9050919050565b600060208201905081810360008301526135db8161318c565b9050919050565b600060208201905081810360008301526135fb816131af565b9050919050565b6000602082019050818103600083015261361b816131d2565b9050919050565b6000602082019050818103600083015261363b816131f5565b9050919050565b6000602082019050818103600083015261365b81613218565b9050919050565b6000602082019050818103600083015261367b8161323b565b9050919050565b6000602082019050818103600083015261369b8161325e565b9050919050565b600060208201905081810360008301526136bb81613281565b9050919050565b600060208201905081810360008301526136db816132a4565b9050919050565b600060208201905081810360008301526136fb816132c7565b9050919050565b6000602082019050818103600083015261371b816132ea565b9050919050565b6000602082019050818103600083015261373b8161330d565b9050919050565b6000602082019050818103600083015261375b81613330565b9050919050565b6000602082019050818103600083015261377b81613353565b9050919050565b6000602082019050818103600083015261379b81613376565b9050919050565b600060208201905081810360008301526137bb81613399565b9050919050565b600060208201905081810360008301526137db816133bc565b9050919050565b600060208201905081810360008301526137fb816133df565b9050919050565b60006020820190506138176000830184613402565b92915050565b60006020820190506138326000830184613420565b92915050565b600060408201905061384d6000830185613420565b61385a6020830184613402565b9392505050565b60006040820190506138766000830185613420565b6138836020830184613420565b9392505050565b60006138946138a5565b90506138a08282613c0c565b919050565b6000604051905090565b600067ffffffffffffffff8211156138ca576138c9613d0f565b5b602082029050602081019050919050565b600067ffffffffffffffff8211156138f6576138f5613d0f565b5b602082029050602081019050919050565b600067ffffffffffffffff82111561392257613921613d0f565b5b602082029050602081019050919050565b600067ffffffffffffffff82111561394e5761394d613d0f565b5b602082029050602081019050919050565b600067ffffffffffffffff82111561397a57613979613d0f565b5b61398382613d60565b9050602081019050919050565b600067ffffffffffffffff8211156139ab576139aa613d0f565b5b6139b482613d60565b9050602081019050919050565b6000819050602082019050919050565b600081519050919050565b600081519050919050565b600081519050919050565b6000602082019050919050565b600082825260208201905092915050565b600082825260208201905092915050565b600082825260208201905092915050565b6000613a3d82613b8e565b9150613a4883613b8e565b9250827fffffffffffffffffffffffffffffffffffffffffffffffffffffffffffffffff03821115613a7d57613a7c613cb1565b5b828201905092915050565b6000613a9382613b8e565b9150613a9e83613b8e565b9250817fffffffffffffffffffffffffffffffffffffffffffffffffffffffffffffffff0483118215151615613ad757613ad6613cb1565b5b828202905092915050565b6000613aed82613b8e565b9150613af883613b8e565b925082821015613b0b57613b0a613cb1565b5b828203905092915050565b6000613b2182613b6e565b9050919050565b60008115159050919050565b60007fffffffff0000000000000000000000000000000000000000000000000000000082169050919050565b600061ffff82169050919050565b600073ffffffffffffffffffffffffffffffffffffffff82169050919050565b6000819050919050565b82818337600083830152505050565b60005b83811015613bc5578082015181840152602081019050613baa565b83811115613bd4576000848401525b50505050565b60006002820490506001821680613bf257607f821691505b60208210811415613c0657613c05613ce0565b5b50919050565b613c1582613d60565b810181811067ffffffffffffffff82111715613c3457613c33613d0f565b5b80604052505050565b6000613c4882613b60565b915061ffff821415613c5d57613c5c613cb1565b5b600182019050919050565b6000613c7382613b8e565b91507fffffffffffffffffffffffffffffffffffffffffffffffffffffffffffffffff821415613ca657613ca5613cb1565b5b600182019050919050565b7f4e487b7100000000000000000000000000000000000000000000000000000000600052601160045260246000fd5b7f4e487b7100000000000000000000000000000000000000000000000000000000600052602260045260246000fd5b7f4e487b7100000000000000000000000000000000000000000000000000000000600052604160045260246000fd5b600060033d1115613d5d5760046000803e613d5a600051613d71565b90505b90565b6000601f19601f8301169050919050565b60008160e01c9050919050565b7f455243313135353a207472616e7366657220746f206e6f6e204552433131353560008201527f526563656976657220696d706c656d656e746572000000000000000000000000602082015250565b7f455243313135353a204552433131353552656365697665722072656a6563746560008201527f6420746f6b656e73000000000000000000000000000000000000000000000000602082015250565b7f436f6c6c656374696f6e20616c7265616479206c696d697465642e0000000000600082015250565b7f4e6f7420656e6f75676820636f7069657320646174612070726f766964656400600082015250565b7f455243313135353a2062616c616e636520717565727920666f7220746865207a60008201527f65726f2061646472657373000000000000000000000000000000000000000000602082015250565b7f4f776e61626c653a206e6577206f776e657220697320746865207a65726f206160008201527f6464726573730000000000000000000000000000000000000000000000000000602082015250565b7f455243313135353a2063616c6c6572206973206e6f74206f776e6572206e6f7260008201527f20617070726f7665640000000000000000000000000000000000000000000000602082015250565b7f455243313135353a207472616e7366657220746f20746865207a65726f20616460008201527f6472657373000000000000000000000000000000000000000000000000000000602082015250565b7f455243313135353a207472616e736665722063616c6c6572206973206e6f742060008201527f6f776e6572206e6f7220617070726f7665640000000000000000000000000000602082015250565b7f455243313135353a20696e73756666696369656e742062616c616e636520666f60008201527f72207472616e7366657200000000000000000000000000000000000000000000602082015250565b7f4f776e61626c653a2063616c6c6572206973206e6f7420746865206f776e6572600082015250565b7f4e6f7420656e6f75676820746f6b656e73206c65667420746f206275792e0000600082015250565b7f416c7265616479206d6f726520746f6b656e73207468616e206d6178206c696d60008201527f69742e0000000000000000000000000000000000000000000000000000000000602082015250565b7f455243313135353a2073657474696e6720617070726f76616c2073746174757360008201527f20666f722073656c660000000000000000000000000000000000000000000000602082015250565b7f455243313135353a206163636f756e747320616e6420696473206c656e67746860008201527f206d69736d617463680000000000000000000000000000000000000000000000602082015250565b7f455243313135353a2069647320616e6420616d6f756e7473206c656e6774682060008201527f6d69736d61746368000000000000000000000000000000000000000000000000602082015250565b7f455243313135353a206d696e7420746f20746865207a65726f2061646472657360008201527f7300000000000000000000000000000000000000000000000000000000000000602082015250565b7f5265656e7472616e637947756172643a207265656e7472616e742063616c6c00600082015250565b7f4e6f7420656e6f75676820555249732070726f76696465640000000000000000600082015250565b600060443d10156142875761430a565b61428f6138a5565b60043d036004823e80513d602482011167ffffffffffffffff821117156142b757505061430a565b808201805167ffffffffffffffff8111156142d5575050505061430a565b80602083010160043d0385018111156142f257505050505061430a565b61430182602001850186613c0c565b82955050505050505b90565b61431681613b16565b811461432157600080fd5b50565b61432d81613b28565b811461433857600080fd5b50565b61434481613b34565b811461434f57600080fd5b50565b61435b81613b60565b811461436657600080fd5b50565b61437281613b8e565b811461437d57600080fd5b5056fea26469706673582212207fd176fb6b5df21e349593762ff96fe6d46ded2abd070d51c984d943195f70b964736f6c63430008040033",
  "linkReferences": {},
  "deployedLinkReferences": {}
}